:1000000012C022C021C000FF1FC01EC01DC01CFFA7
:1000100038FF37C019C018C017C016C015C014C0AB
:1000200013FF27C011C000231FBECFEDCDBF10FFAF
:10003000FEFFFFFFFFFFFFFFFFFFFFFFFFFFFFFFD1
:10004000FEFFFFFFFFFFFFFFFFFF7F928F929F9258
:10005000AF92BF92CF92DF92EF92FF920F931F93D6
:10006000CF93DF93B1D0FFD092D2FF01FFFF08D131
:10007000FF00FFE0EE00FF94CC24C394C0E0D0E08A
:10008000FFBA79E6772E6FEFA62EB12C5CE1FF0B5D
:10009000FF2204C048E0F42E01FF032EFFFE882358
:1000A000D9F0FFFE182F81568A0015F48F5B0EFFE2
:1000B0001C2FFF038A3110F48F5908C0812F805301
:1000C0008A0015F4872D811B01C0812FD5D01D30EA
:1000D00019F481E790E0D4D0013039F1000200FF3B
:1000E000023009F043C03DC0009033E095958795FC
:1000F0003A95E1F7282F30E08D3158F4C400891B80
:10010000FF26950102C0359527958A95E2F7C9012A
:1001100008C02C005840C50102C0880F991F2A95BD
:10012000FFC4182F66D0812F1FC0219633E0C83E30
:10013000D307E1F4FF00E81651F021E0E21619F4CC
:10014000CC24C39402C0CC2011F0EE0C02C0E69483
:10015000CC248E2D80955FD08E2D4BD0C0FFFFE03C
:1001600005FF0B2D46FF882D809555D066D0182FA2
:100170008F1509F492CF813039FF735F030007F4C4
:1001800000E08FEF48D0FF13823059F4023009F0BD
:1001900084CFD39432FFFFFFFFFFFFFFFFFFFFFF7E
:1001A000FFFFFFFFFFFEFFFFFEFFFFFFFFFFFFFF61
:1001B000F92E74CF883009F070CF000500126ACF95
:1001C00088E0F82EDD246ACFC29A959AC39AC49A21
:1001D00094FF299AD89AD99ABA9AFF1BBB9ABC9ACB
:1001E000FF188EFF1C9AD19A8A988B98B898B99864
:1001F00008FF112F80FDC29891FD9598FF24C398A8
:1002000093FF279894FD949895FDFF2D96FDD8981F
:1002100087FDD9980895FFFF80FDFF85FF22959AFD
:1002200092FDC39A93FDFF8994FD949AFF2A969AB2
:1002300096FDD89AFF0ED99A089580B38695869533
:1002400080958170FF06FF05B09BFF09B19B886018
:1002500000101F93182FF1DF8123E9F3EEDF8123D4
:10026000E9FFD39108950025FF1889B959FFB3E03C
:1002700083B988E18AB908955D9BFECFFF18089580
:10028000FC0104C05DFFBBCF31968CFF1881882331
:10029000C9F708955F9BFECF8CFF19958BFF171F41
:1002A0008827881F0895982F8A3010F480000195C0
:1002B000FF14863010F080E00895892F890013958F
:1002C000EF92FF921F93CF93DF937C01EB0160E1EC
:1002D00077E25FD1862FE7DF888300FF803300134A
:1002E00011E0C70168EE73E054D1CB016AE070E021
:1002F00050D1D9DFFE01E10FF11D8083803309F079
:100300001F5FC70164E670E044D1CB016AE070E092
:1003100040D1C9DFFE01E10FF11D8083803309F078
:100320001F5FC7016AE070FFFEFFFFFFFFFFFFFFD7
:10033000FFFEFFFFFFFFFFFFFFFFFFFFFFFFFFFFCE
:10034000FEFFFF016AE000E124D1ADDFFE01FFCF37
:10035000F11D80831F5FC10FD100A38285E0DF9173
:10036000CF911F91FF90FFDF089588B3806A88BB0B
:1003700087B3806A87BB80E88FB980E28DB9089522
:1003800080E1982F9A95F1F71FB88A95F1F781E2ED
:100390008DB9779BFECF80FF00B908FF10EF8FB9B2
:1003A00081E2FFFF9A95F1F78DB990E1292F2A9507
:1003B000F1F71FB89A95F1F78DB9779BFECF80FFC3
:1003C00000B908951FB881E2982FFF35F1F78DB974
:1003D000FF008A95F1F78FEF8FB9759BFECF80E212
:1003E0008EB90895FF1E90E021E232E2FF048A9563
:1003F000F1F72DB9FF048A95F1FFE3B997300013A7
:100400003DFF7B5FFFED91F78FEFFF1F91E2892F9B
:100410008A95F1F79DB920FFFE000595FFE282E283
:100420008DB90055F1F79DFF3AB1809581700011AB
:10043000FC018FEF8FB9FFFF31E240E16FEF52E235
:10044000832F8A95F1F73DFF7A2F8A95F1F7FF2FD9
:1004500021F48FB1880011836FB95DB9FF088A95C7
:10046000F1F700433DB99F5F983051F79FB191700C
:100470008081892B80831FFF3E2FFF15F1F72DB957
:10048000FF048A95F1F72DB90895FC018FFF1FB97C
:1004900090E031E240E16FEF52E2FF078A95F1F719
:1004A0003DB9842FFF14F1F7973021F48FB1FF117C
:1004B000FF0000DF5DB9FF098A95F1F721E23DFFFA
:1004C0007A5F983000A28FB181709081982B9083D1
:1004D0008FEF8FB9822F8A95F1F72DB9822F8A95E8
:1004E000F1F7005B0895FF920F931F93182FF62EDC
:1004F000072F46DF80E976DF880011F0FF0272DF08
:10050000882331F0113011F0800001DF8F2D6ADF78
:1005100059DF1F910F91FF9008951F93DF93CF93A1
:1005200000D0CDB7DEFFBD2F19822ADF80E900B5EC
:1005300088230093812F56FFAC2329F02FDF81FF02
:1005400002DF882321F43EDF20E000610FC011307C
:1005500019F0CE0101966CDFCE01029696DF32DFF4
:10056000998180FFFE810061282B392BC90093906F
:100570000F90CF91FFBE1F91089580E0CEDF9C01C8
:1005800085FFC99527958AFF14F7FF9308FF11DEB1
:10059000089597FB092E0700FED077FD000800198B
:1005A00006D000201AF470FFE0957F4F0895F6FF03
:1005B000EC9581959F4F0895AA1BBB0076E1000F33
:1005C000AA1FBB1FA617B70710F0A61BB70B881FE3
:1005D00099003395A9F780959095BC01CD010895B8
:1005E000FFFEFFCF0D0A48656C6C6F20776F726C51
:1005F00064210D0A00000A00FFFFFFFFFFFF00005B
:10060000FFFFFFFFFFFFFFFFFFFFFFFFFFFEFFFFFB
:10061000FFFFFFFFFFFFFFFFFFFFFFFFFFFEFFFFEB
:10062000FFFFFFFFFFFFFFFFFFFFFFFFFFFFFFFFDA
:10063000FFFFFFFFFFFFFFFFFFFFFFFFFFFFFFFFCA
:10064000FFFFFFFFFFFFFFFFFFFFFFFFFEFFFFFFBB
:10065000FFFFFFFFFFFEFFFFFFFFFFFFFFFFFFFFAB
:10066000FFFFFFFFFFFFFFFFFFFFFFFFFFFFFFFF9A
:10067000FFFEFFFFFFFFFFFFFFFFFFFFFFFFFFFF8B
:10068000FFFFFFFFFFFEFFFFFFFFFFFFFFFFFFFF7B
:10069000FFFFFFFFFFFFFFFFFEFFFFFFFFFFFFFF6B
:1006A000FFFFFFFFFFFFFFFFFFFFFFFFFFFFFFFF5A
:1006B000FFFFFFFFFFFFFFFFFFFFFFFFFFFFFFFF4A
:1006C000FEFFFFFFFFFEFFFFFFFFFFFFFFFEFFFF3D
:1006D000FFFEFFFFFFFFFFFFFFFFFFFFFFFFFFFF2B
:1006E000FFFFFFFFFFFFFFFFFFFFFFFFFFFFFFFF1A
:1006F000FEFFFFFFFEFFFFFFFFFFFFFFFFFEFFFF0D
:10070000FFFFFFFFFFFFFFFFFFFEFFFFFFFEFFFFFB
:10071000FFFFFFFFFFFFFFFFFFFFFFFFFEFFFFFFEA
:10072000FFFEFFFFFFFFFFFFFFFFFFFFFFFFFFFFDA
:10073000FFFFFFFFFFFFFFFFFFFFFFFFFFFFFFFFC9
:10074000FFFFFFFFFEFFFFFFFFFFFFFFFFFFFFFFBA
:10075000FFFFFFFFFFFFFFFFFFFFFFFFFFFEFFFFAA
:10076000FFFEFFFFFEFFFFFFFFFFFFFFFFFFFFFF9B
:10077000FFFFFFFFFFFFFFFFFFFFFFFFFFFFFFFF89
:10078000FFFFFFFFFFFFFFFFFFFFFFFFFFFFFFFF79
:10079000FFFFFFFFFFFFFFFFFFFEFFFFFFFFFFFF6A
:1007A000FFFFFFFFFFFFFFFFFFFFFFFFFFFFFFFF59
:1007B000FFFFFFFFFFFFFFFFFFFFFFFFFFFEFFFF4A
:1007C000FFFFFFFFFFFFFFFFFFFFFFFFFFFFFFFF39
:1007D000FFFFFFFFFFFFFFFFFFFEFFFFFFFFFFFF2A
:1007E000FFFFFFFFFFFFFFFFFFFFFFFFFFFEFFFF1A
:1007F000FFFEFFFFFFFFFFFFFFFFFFFFFFFEFFFF0B
:00000001FF
