:100000000EC01DC01CC01BC01AC019C018C017C02C
:1000100016C015C014C013C012C011C010C01124E6
:100020001FBECFE5D1E0DEBFCDBF10E0A0E6B0E05F
:1000300001C01D92A236B107E1F727D0DBC0E0CFA7
:1000400020E030E044EF51E005C0FA013197F1F7CC
:100050002F5F3F4F28173907C4F3089584E084BB0E
:1000600017B880E886B913B8089597B1907F982B98
:1000700097B9369A3699FECF24B145B1942F80E0D6
:1000800030E0282B392BC9010895CF93DF9387E007
:1000900087BB84E084BB17B880E886B913B8C4EF87
:1000A000D1E0B49B72C0809160009091610081307A
:1000B000910501F1823091051CF4892B39F0F1CFC3
:1000C0008230910561F1039761F746C0C29AC198E9
:1000D000C09883E0CADF6EE170E07AD020E030E0C3
:1000E00005C0FE013197F1F72F5F3F4F2817390701
:1000F000C4F328C0C29AC19AC09883E0B6DF880FC3
:10010000991F880F991F20E030E005C0FE0131974C
:10011000F1F72F5F3F4F28173907C4F313C0C29878
:10012000C198C09A83E0A1DF6EE170E051D020E079
:1001300030E005C0FE013197F1F72F5F3F4F2817E0
:100140003907C4F38091600090916100019690930B
:10015000610080936000A5CFC298C19AC09883E0E7
:1001600084DF880F991F880F991F20E030E005C0B9
:10017000FE013197F1F72F5F3F4F28173907C4F37E
:1001800010926100109260008CCF1092610010926A
:100190006000C298C098C19883E067DF9C0180E04E
:1001A00090E004C0FE013197F1F7019682179307A2
:1001B000CCF3C19A83E059DF9C0180E090E004C059
:1001C000FE013197F1F7019682179307CCF369CFBF
:1001D0005527002480FF02C0060E571F660F771FA9
:1001E0006115710521F096958795009799F7952FE0
:0801F000802D0895F894FFCF63
:00000001FF
