:1000000009C019C015C014C013C012C011C010C05F
:100010000FC00EC011241FBECFE9CDBF10E0A0E677
:10002000B0E001C01D92A436B107E1F753D09FC0E4
:10003000E7CF86BF08951F920F920FB60F9211243B
:100040002F933F934F935F936F937F938F939F93E0
:10005000AF93BF93EF93FF9380E699E00197F1F799
:10006000109261001092600026E00CC08091600048
:100070009091610001969093610080936000822FBF
:100080008A95F1F7B199F2CF80916000909161006B
:100090008F3F91052CF4809160009091610002C027
:1000A0008FEF90E0C6DF84E690E09093630080934A
:1000B0006200FF91EF91BF91AF919F918F917F91DE
:1000C0006F915F914F913F912F910F900FBE0F90C5
:1000D0001F901895BC9AB89AC49A80E197E220EFD5
:1000E00030E0F9013197F1F70197D9F780E197E214
:1000F00020EF30E0F9013197F1F70197D9F7C49873
:100100008FB583688FBD83B7816083BF83E085BF70
:1001100080E48BBF82E085BB789416BE40E659E050
:1001200020EF30E0CA010197F1F7809162009091D1
:100130006300181619064CF48091620090916300D8
:100140000197909363008093620080916200909188
:100150006300892B51F4C49A16BE88EE93E0F9012E
:100160003197F1F70197D9F7DDCFC498DBCFF89439
:02017000FFCFBF
:00000001FF
