:1000000012C02CC02BC02AC029C028C027C026C0BF
:1000100025C03CC023C022C021C020C01FC01EC0BC
:100020001DC01CC01BC011241FBECFE5D4E0DEBF25
:10003000CDBF10E0A0E6B0E0E2E7F3E002C005903B
:100040000D92A236B107D9F710E0A2E6B0E001C0E8
:100050001D92AA36B107E1F742D089C1D1CF97B13D
:10006000907F982B97B9369A3699FECF369A369963
:10007000FECF85B1089587B1806687B983E886B9D8
:10008000089583E083BF81E089BF08951F920F9296
:100090000FB60F9211242F938F939F93809162003C
:1000A0009091630001969093630080936200809129
:1000B000620090916300825C914049F41092630069
:1000C00010926200809164008F5F809364009F9122
:1000D0008F912F910F900FBE0F901F90189583E076
:1000E00083BF81E089BF87B1806687B983E886B91D
:1000F00083E07ED081E060E054D08FEF81BB79E077
:1001000028EC30E06AE056E045E072BB88EE93E010
:10011000F9013197F1F70197D9F762BB88EE93E0C7
:10012000F9013197F1F70197D9F752BB88EE93E0C7
:10013000F9013197F1F70197D9F742BB88EE93E0C7
:10014000F9013197F1F70197D9F7DFCF87B3807FB6
:1001500087BB969A959881E08A95F1F721E032E085
:10016000979A822F8A95F1F786B38295807F922F96
:100170009A95F1F79798932F9A95F1F7979A922F6E
:100180009A95F1F796B3922F9A95F1F79798932F46
:100190009A95F1F787FDE4CF969887B38F6087BB78
:1001A0000895282F662311F4959801C0959A81E04F
:1001B0008A95F1F7979A88B3922F92959F70807FD6
:1001C000982B98BB92E0892F8A95F1F79798892F01
:1001D0008A95F1F7979A88B32F70807F822B88BB1E
:1001E000892F8A95F1F797989A95F1F7AFDF0895DF
:1001F0001F93182F80E69AEE0197F1F787B38F606F
:1002000087BB8F9A8D9A8E9A88B3807F88BB979888
:100210009698959881E08A95F1F7979AC19A82E02D
:10022000982F9A95F1F797988A95F1F78FDF812F9C
:100230008C6060E0B6DF88E260E0B3DF1F91089574
:10024000CF93DF93EC0103C061E0ABDF219688819F
:100250008823D1F7DF91CF910895EF92FF920F930A
:100260001F93DF93CF9300D000D00F92CDB7DEB7AE
:100270009C018B01FE01319685E0DF011D928A957C
:10028000E9F7FE0135960BC0C9016AE070E048D07D
:100290008083C9016AE070E043D09B01319721154A
:1002A000310591F7BFEF0F3F1B0779F420E030E0F5
:1002B000AE014F5F5F4F02C02F5F3F4FFA01E20F69
:1002C000F31F80818823C1F304C025E030E0201BA8
:1002D000310B7E010894E11CF11CE20EF31E890132
:1002E00008C0F70181917F01805D61E05ADF0F5FF7
:1002F0001F4F05301105ACF30F900F900F900F902A
:100300000F90CF91DF911F910F91FF90EF90089583
:10031000883228F461118064806860E042DF0895CB
:1003200097FB092E07260AD077FD04D00CD006D003
:1003300000201AF4709561957F4F0895F6F7909517
:1003400081959F4F0895AA1BBB1B51E107C0AA1FAF
:10035000BB1FA617B70710F0A61BB70B881F991F66
:100360005A95A9F780959095BC01CD010895F89410
:02037000FFCFBD
:02037200310E4A
:00000001FF
