:1000000009C021C020C020C01EC01DC01CC01BC014
:100010001AC019C011241FBECFE9CDBF10E0A0E661
:10002000B0E0E2EBF0E002C005900D92A036B1071F
:10003000D9F710E0A0E6B0E001C01D92A036B107EC
:10004000E1F725D034C0DCCF1F920F920FB60F928C
:1000500011248F939F9384EC99E00197F1F79F917E
:100060008F910F900FBE0F901F901895BB9AC39A57
:1000700088E893E10197F1F7BB98C39820E030E05E
:1000800002C02F5F3F4FB399FCCFC90108951F9362
:1000900085E083BF82E089BF80E187BB10E1E6DFB6
:1000A0008536910510F018BBFACF18BAF8CFF8943E
:0200B000FFCF80
:00000001FF
