:100000000C942A000C948A000C9447000C9447002E
:100010000C9447000C9447000C9447000C94470044
:100020000C9447000C9447000C9447000C94620019
:100030000C9447000C9447000C9447000C94470024
:100040000C9447000C9447000C9447000C94470014
:100050000C94470011241FBECFE5D4E0DEBFCDBF16
:1000600010E0A0E6B0E0E6E8F3E002C005900D92F3
:10007000A036B107D9F710E0A0E6B0E001C01D92AC
:10008000AB36B107E1F70E94AA000C94C1010C94B1
:10009000000090BD89B988E98AB986E880BD0895D5
:1000A0005D9BFECF8CB908955F9BFECF8CB1089508
:1000B000FC0104C05D9BFECF31968CB98081882302
:1000C000C9F708951F920F920FB60F9211248F93C4
:1000D0009F93EF93FF9390916000E92FF0E05F9B77
:1000E000FECF8CB1ED59FF4F8083E0815D9BFECF49
:1000F000ECB9892F8F5F80936000883011F41092E3
:100100006000FF91EF919F918F910F900FBE0F9024
:100110001F9018951F920F920FB60F9211242F93D4
:100120003F938F939F93809161009091620020E0B4
:1001300030E0892B11F421E030E03093620020930D
:1001400061009F918F913F912F910F900FBE0F9063
:100150001F901895BF92CF92DF92EF92FF920F936C
:100160001F938FE08ABB90EF97BB8FEF84BB91BB4F
:1001700082E085BF80E48BBF789410BC8CE089B9A5
:1001800088E98AB986E880BD5D9BFECF82E48CB9A0
:1001900030EFB32ECC24C39470E224E8D22E48EA88
:1001A00051E692E0E92E84E4F82E04E060E412E2E5
:1001B000B8E0A2E1F0EC40C080E188BB8091630030
:1001C0008F708BBB80916300807F82BB80916400C5
:1001D00085BB2AEF30E0C9010197F1F778BB809128
:1001E00065008F708BBB80916500807F82BB8091A2
:1001F000660085BBC9010197F1F768BB8091670074
:100200008F708BBB80916700807F82BB809168007C
:1002100085BBC9010197F1F780E888BB809169002F
:100220008F708BBB80916900807F82BB80916A0058
:1002300085BBC9010197F1F780916100909162003F
:10024000892B09F4B9CF26C0B8BACBBA72BBD5BADC
:10025000CA010197F1F7EBBA72BBF5BACA0101976F
:10026000F1F70BBB62BB15BBCA010197F1F7BBBB32
:1002700062BBA5BBCA010197F1F71BBAF2BBE5BB94
:10028000CA010197F1F71BBA32BB25BBCA0101971E
:10029000F1F703C0E3E030E32CE08091610090913E
:1002A0006200892B89F6C8CF0F931F93DF93CF93FA
:1002B000CDB7DEB727970FB6F894DEBF0FBECDBF20
:1002C0008E010F5F1F4FB8014AE050E00E947C0191
:1002D000F80104C05D9BFECF31968CB980818823E4
:1002E000C9F727960FB6F894DEBF0FBECDBFCF91EA
:1002F000DF911F910F910895FB019F01E894423017
:10030000C4F04532B4F44A3029F497FB1EF49095BA
:1003100081959F4F642F77270E94AD01805D8A33BE
:100320000CF0895D8193CB010097A1F716F45DE293
:1003300051931082C9010C949D01DC01FC01672FCF
:1003400071917723E1F7329704C07C916D937083AC
:100350006291AE17BF07C8F30895AA1BBB1B51E1FA
:1003600007C0AA1FBB1FA617B70710F0A61BB70B25
:10037000881F991F5A95A9F780959095BC01CD01CA
:060380000895F894FFCF80
:00000001FF
