:100000001CC02EC02DC02CC02BC02AC029C028C0A7
:1000100027C026C025C024C023C022C021C020C0C4
:100020001FC01EC01DC07EC07FC080C081C082C0F6
:1000300083C084C085C086C087C011241FBECFE5A1
:10004000D4E0DEBFCDBF10E0A0E6B0E0E0E3F3E037
:1000500002C005900D92A036B107D9F702D066C153
:10006000CFCF8FEF87BB80EE81BB83E390E017D0CB
:10007000F7D085E0F9D09695879596958795C8D065
:1000800084E0F2D09695879596958795D5D084E0B3
:10009000EBD096958795969587951AD0EACF90BD27
:1000A00089B988E98AB986E880BD08955D9BFECF4D
:1000B0008CB908955F9BFECF8CB10895FC0104C0FC
:1000C0005D9BFECF31968CB980818823C9F7089556
:1000D0000F931F93DF93CF93CDB7DEB727970FB65C
:1000E000F894DEBF0FBECDBF8E010F5F1F4FB8016A
:1000F0004AE050E0D8D0C801E1DF27960FB6F89467
:10010000DEBF0FBECDBFCF91DF911F910F9108953C
:100110008A3000F5E82FF0E0EA30F105B8F4ED5E42
:10012000FF4F09948FE311C086E00FC08BE50DC02F
:100130008FE40BC086E609C08DE607C08DE705C0D9
:1001400087E003C08FE701C08FE688BB662361F0BC
:10015000C79A089518BA863519F48EE388BB0895B6
:10016000813411F487E788BB0895AF92BF92CF9294
:10017000DF92EF92FF920F931F93CF93DF93282F7D
:10018000162F042F6AE083D0D92E822F80D0282FFB
:100190007ED0E92E822F7BD07AD0F92E20ECA22EB1
:1001A000C0E1D7E290EAB92E80E6C82E1FC0A2BAFD
:1001B00060E0133009F461E08F2DAADFCE010197D2
:1001C000F1F7B2BA60E0123009F461E08E2DA0DFE1
:1001D000CE010197F1F7C2BA60E0113009F461E095
:1001E0008D2D96DFCE010197F1F701500023F9F62E
:1001F00080EE82BB8AE060E08BDFDF91CF911F91C0
:100200000F91FF90EF90DF90CF90BF90AF90089547
:1002100062E048E2AADF80E682BB81E460E078DF4A
:1002200080E797E128EC30E0F9013197F1F7019789
:10023000D9F780EE82BB089562E048E296DF80E65F
:1002400082BB86E560E064DF80E797E128EC30E080
:10025000F9013197F1F70197D9F780EE82BB089544
:100260003E9A83E886B9089597B1907F982B97B905
:10027000369A3699FECF369A3699FECF24B145B1DB
:10028000942F80E030E0282B392BC9010895991B69
:1002900079E004C0991F961708F0961B881F7A957D
:1002A000C9F780950895FB019F01E8944230BCF0A6
:1002B0004532ACF44A3029F497FB1EF490958195B1
:1002C0009F4F642F77271ED0805D8A330CF0895DA5
:1002D0008193CB010097A9F716F45DE25193108248
:1002E000C90100C0DC01FC01672F71917723E1F7A0
:1002F000329704C07C916D9370836291AE17BF07F3
:10030000C8F30895AA1BBB1B51E107C0AA1FBB1F5E
:10031000A617B70710F0A61BB70B881F991F5A9591
:10032000A9F780959095BC01CD010895F894FFCF71
:00000001FF
