:100000001EC081C037C036C035C034C033C032C016
:1000100031C036C02FC0ACC42DC02CC02BC02AC0EC
:1000200029C028C027C06DC577C581C58BC595C5BA
:10003000A8C5BBC5CEC5E1C5F4C507C61AC61124FF
:100040001FBECFE5D4E0DEBFCDBF11E0A0E6B0E03B
:10005000EEEEF2E102C005900D92A439B107D9F796
:1000600011E0A4E9B1E001C01D92A73CB107E1F79E
:1000700059D03BC9C5CF85E083BF81E089BF0895D2
:100080001F920F920FB60F9211242F933F934F930D
:100090005F938F939F9320910301309104014091CE
:1000A000940150919501C901880F991F820F931FE8
:1000B0009C01220F331F220F331F820F931F880FC3
:1000C000991F8417950734F41092990110929501A5
:1000D00010929401809194019091950101969093D2
:1000E0009501809394019F918F915F914F913F91E2
:1000F0002F910F900FBE0F901F9018958AE085BF2B
:1001000080E48BBF08951F920F920FB60F921124B7
:100110008F9381E080939C018F910F900FBE0F9081
:100120001F9018952F923F924F925F926F927F92FD
:100130008F929F92AF92BF92CF92DF92EF92FF92F7
:100140000F931F93CF93DF9389E190E0EBD354D4C7
:10015000D5DF789483E088BB87E087BB8CEF82BBD8
:1001600088EF81BB81E084BB44D70F2EFCE36F2E68
:100170007724F02D0F2EF0E64F2EF0E05F2EF02DBD
:100180000F2EF2E52F2E3324F02D0F2EF2E3EF2E5B
:10019000FF24F02D0F2EF0EDCF2EF7E0DF2EF02D07
:1001A000C8ECD0E00F2EF8E3AF2EBB24F02D00E218
:1001B0001EE40F2EF5E38F2E9924F02D80919C01E3
:1001C0008823E1F384E020D464E670E038D86F5FE0
:1001D0007F4F669DC001679D900D769D900D112407
:1001E0009093040180930301809103019091040195
:1001F000B30139D8CB01E0D3C201ACD3F1011082F5
:100200003ADFF1E0F093990185E0FED390939701F6
:10021000809396018736910518F421E02093980188
:100220008091960190919701865690408E3C910561
:1002300018F482E080939801809196019091970143
:10024000835391408E3C910518F4E3E0E0939801CC
:100250008091960190919701805092408D3C91053C
:1002600018F484E080939801809196019091970111
:100270008C5C92408E3C910518F485E08093980147
:100280008091960190919701895993408836910504
:1002900018F4F6E0F0939801F7018081877F80835E
:1002A0009601CE010197F1F721503040D1F7F701C7
:1002B0008081886080839601CE010197F1F72150FB
:1002C0003040D1F7F7018081877F80839601CE018E
:1002D0000197F1F721503040D1F7F7018081886014
:1002E00080839601CE010197F1F721503040D1F77C
:1002F000F7018081877F80839601CE010197F1F716
:1003000021503040D1F7F7018081886080839601C9
:10031000CE010197F1F721503040D1F7F7018081EC
:10032000877F80839601CE010197F1F721503040FD
:10033000D1F7F7018081886080839601CE01019713
:10034000F1F721503040D1F7F7018081877F80831A
:100350009601CE010197F1F721503040D1F7F70116
:100360008081886080839601CE010197F1F721504A
:100370003040D1F7F7018081877F80839601CE01DD
:100380000197F1F721503040D1F7F7018081886063
:1003900080839601CE010197F1F721503040D1F7CB
:1003A000F7018081877F80839601CE010197F1F765
:1003B00021503040D1F7F701808188608083960119
:1003C000CE010197F1F721503040D1F7F70180813C
:1003D000877F80839601CE010197F1F7215030404D
:1003E000D1F7F7018081886080839601CE01019763
:1003F000F1F721503040D1F7F5018081846080838E
:10040000809198018130C9F487E690E0A3D2F5018C
:1004100080818D7F80839601CE010197F1F7215075
:100420003040D1F7F5018081826080839601CE0152
:100430000197F1F721503040D1F780919801823037
:10044000C9F480E890E086D2F50180818D7F8083B9
:100450009601CE010197F1F721503040D1F7F50117
:100460008081826080839601CE010197F1F721504F
:100470003040D1F7809198018330C9F48AE990E047
:1004800069D2F50180818D7F80839601CE0101972D
:10049000F1F721503040D1F7F501808182608083EF
:1004A0009601CE010197F1F721503040D1F78091AC
:1004B0009801843009F02FC084EB90E04BD2F50115
:1004C00080818D7F80839601CE010197F1F72150C5
:1004D0003040D1F7F5018081826080839601CE01A2
:1004E0000197F1F721503040D1F7F50180818D7FE0
:1004F00080839601CE010197F1F721503040D1F76A
:10050000F5018081826080839601CE010197F1F729
:1005100021503040D1F780919801853009F02FC0EB
:100520008FEC90E017D2F50180818D7F808396015A
:10053000CE010197F1F721503040D1F7F5018081CC
:10054000826080839601CE010197F1F721503040FF
:10055000D1F7F50180818D7F80839601CE010197CF
:10056000F1F721503040D1F7F5018081826080831E
:100570009601CE010197F1F721503040D1F78091DB
:100580009801863009F0B2C189EE90E0E3D1F5011F
:1005900080818D7F80839601CE010197F1F72150F4
:1005A0003040D1F7F5018081826080839601CE01D1
:1005B0000197F1F721503040D1F7F50180818D7F0F
:1005C00080839601CE010197F1F721503040D1F799
:1005D000F5018081826080839601CE010197F1F759
:1005E00021503040D1F782C180919801813009F0CB
:1005F0003AC010929B0110929A01EBD5C801019765
:10060000F1F780919A0190919B01019690939B0143
:1006100080939A01C2978CF310929B0110929A01D9
:10062000FAD4C8010197F1F780919A0190919B014A
:10063000019690939B0180939A018436910584F3EF
:1006400010929B0110929A01C4D5C8010197F1F74D
:1006500080919A0190919B01019690939B018093C8
:100660009A01C2978CF380919801823009F03CC0C6
:1006700010929B0110929A01ACD5C8010197F1F735
:1006800080919A0190919B01019690939B01809398
:100690009A018436910584F310929B0110929A017D
:1006A000BAD4C8010197F1F780919A0190919B010A
:1006B000019690939B0180939A01883C910584F365
:1006C00010929B0110929A0184D5C8010197F1F70D
:1006D00080919A0190919B01019690939B01809348
:1006E0009A018436910584F380919801833009F052
:1006F0003CC010929B0110929A016BD5C8010197E2
:10070000F1F780919A0190919B01019690939B0142
:1007100080939A018A3F910584F310929B01109275
:100720009A0179D4C8010197F1F780919A019091CB
:100730009B01019690939B0180939A01845F914065
:1007400084F310929B0110929A0143D5C80101973E
:10075000F1F780919A0190919B01019690939B01F2
:1007600080939A018A3F910584F3809198018430A7
:1007700009F03AC010929B0110929A012AD5C80143
:100780000197F1F780919A0190919B0101969093C6
:100790009B0180939A01C2978CF310929B01109257
:1007A0009A0139D4C8010197F1F780919A0190918B
:1007B0009B01019690939B0180939A018436910549
:1007C00084F310929B0110929A0103D5C8010197FE
:1007D000F1F780919A0190919B01019690939B0172
:1007E00080939A01C2978CF380919801853009F02B
:1007F0003CC010929B0110929A01EBD4C801019762
:10080000F1F780919A0190919B01019690939B0141
:1008100080939A018436910584F310929B01109283
:100820009A01F9D3C8010197F1F780919A0190914B
:100830009B01019690939B0180939A01883C9105BE
:1008400084F310929B0110929A01C3D4C8010197BE
:10085000F1F780919A0190919B01019690939B01F1
:1008600080939A018436910584F3809198018630B3
:1008700009F03CC010929B0110929A01AAD4C801C1
:100880000197F1F780919A0190919B0101969093C5
:100890009B0180939A01883C910584F310929B01FF
:1008A00010929A01B8D3C8010197F1F780919A018B
:1008B00090919B01019690939B0180939A0180599E
:1008C000914084F310929B0110929A0182D4C80146
:1008D0000197F1F780919A0190919B010196909375
:1008E0009B0180939A01883C910584F38091990142
:1008F000882309F079CEF50180818B7F8083109267
:100900009C01F40180818160808320E137E2CE0187
:100910000197F1F721503040D1F7F40180818E7FAB
:1009200080834CCCE0E4F0E0908389B988E98AB90F
:1009300086E880830895982FEBE2F0E0808185FFC0
:10094000FDCF9CB90895EBE2F0E080818823ECF7BD
:100950008CB10895CF93DF93EC018881882329F02F
:100960002196E9DF88818823D9F7DF91CF91089517
:100970001F920F920FB60F9211242F933F934F9314
:100980005F936F937F938F939F93AF93BF93EF93F7
:10099000FF93D9DF1FD3FF91EF91BF91AF919F914B
:1009A0008F917F916F915F914F913F912F910F9018
:1009B0000FBE0F901F9018950F931F93DF93CF9347
:1009C000CDB7DEB727970FB6F894DEBF0FBECDBF09
:1009D0008E010F5F1F4FB8014AE050E057D4C801A5
:1009E000B9DF27960FB6F894DEBF0FBECDBFCF910B
:1009F000DF911F910F910895E7E2F0E0808180641C
:100A0000808383E886B90895E7E2F0E09081907FE3
:100A1000892B8083E6E2F0E080818064808380819E
:100A200086FDFDCFE6E2F0E08081806480838081F6
:100A300086FDFDCF84B145B1342F20E090E0282B16
:100A4000392B822F932F08959091A201913081F03C
:100A5000913018F0923009F516C0883731F4809142
:100A6000A2018F5F8093A20118C01092A20115C04D
:100A7000883731F48091A2018F5F8093A2010DC06D
:100A80001092A2010AC0883731F48091A2018F5FD1
:100A90008093A20102C01092A2018091A201833032
:100AA00019F585E091E056DFE2E3F0E08081877F91
:100AB000808320ED37E048EC50E0CA010197F1F760
:100AC00021503040D1F7E2E3F0E0808188608083FC
:100AD00020ED37E048EC50E0CA010197F1F72150D2
:100AE0003040D1F71092A2010895982F8091A10172
:100AF000E82FF0E0EC30F10508F0CEC0ED5EFF4FDE
:100B00000994963631F48091A1018F5F8093A10101
:100B1000C3C01092A101C0C0923731F48091A101ED
:100B20008F5F8093A101B8C01092A101B5C0953626
:100B300031F48091A1018F5F8093A101ADC010922B
:100B4000A101AAC0913731F48091A1018F5F8093F8
:100B5000A101A2C01092A1019FC0892F80538A30A9
:100B600068F48091A1018F5F8093A101892F90E0AB
:100B7000C0979093A8018093A7018EC01092A10105
:100B80008BC0892F80538A3068F48091A1018F5FD8
:100B90008093A101892F90E0C0979093AA01809340
:100BA000A9017AC01092A10177C0892F80538A30A1
:100BB00068F48091A1018F5F8093A101892F90E05B
:100BC000C0979093AC018093AB0166C01092A101D5
:100BD00063C0892F80538A3068F48091A1018F5FB0
:100BE0008093A101892F90E0C0979093AE018093EC
:100BF000AD0152C01092A1014FC0892F80538A309D
:100C000068F48091A1018F5F8093A101892F90E00A
:100C1000C0979093B0018093AF013EC01092A101A4
:100C20003BC0892F80538A3068F48091A1018F5F87
:100C30008093A101892F90E0C0979093B201809397
:100C4000B1012AC01092A10127C0892F80538A3098
:100C500068F48091A1018F5F8093A101892F90E0BA
:100C6000C0979093B4018093B30116C01092A10174
:100C700013C0892F80538A3068F48091A1018F5F5F
:100C80008093A101892F90E0C0979093B601809343
:100C9000B50102C01092A1018091A1018C3041F4F4
:100CA0008FE091E057DE87EA91E0C5D21092A10172
:100CB00008959091A001923031F1933030F499234E
:100CC00061F0913009F056C013C09430B1F1943006
:100CD00028F1953009F04EC03FC08D3631F4809137
:100CE000A0018F5F8093A00145C01092A00142C077
:100CF000813631F48091A0018F5F8093A0013AC0CA
:100D00001092A00137C0883731F48091A0018F5F25
:100D10008093A0012FC01092A0012CC0982F905357
:100D20009A3040F48091A0018F5F8093A00190934E
:100D3000A50120C01092A0011DC0982F90539A3099
:100D400040F48091A0018F5F8093A0019093A40153
:100D500011C01092A0010EC0982F90539A3040F409
:100D60008091A0018F5F8093A0019093A30102C0A6
:100D70001092A0018091A0018630C1F48AE191E037
:100D8000E9DD8091A5012091A4015091A30144E6E1
:100D9000849FC00111244AE0249F90011124820FF6
:100DA000931F850F911D08DE1092A0010895909168
:100DB0009F01923031F1933030F4992361F09130FA
:100DC00009F056C013C09430B1F1943028F1953039
:100DD00009F04EC03FC08D3631F480919F018F5F86
:100DE00080939F0145C010929F0142C0893631F423
:100DF00080919F018F5F80939F013AC010929F0165
:100E000037C08E3631F480919F018F5F80939F01B0
:100E10002FC010929F012CC0982F90539A3040F40D
:100E200080919F018F5F80939F019093A50120C0C7
:100E300010929F011DC0982F90539A3040F48091DA
:100E40009F018F5F80939F019093A40111C0109226
:100E50009F010EC0982F90539A3040F480919F01CB
:100E60008F5F80939F019093A30102C010929F0116
:100E700080919F018630C1F484E291E06BDD809126
:100E8000A5012091A4015091A30144E6849FC001D3
:100E900011244AE0249F90011124820F931F850F93
:100EA000911D8ADD10929F01089590919D019230CD
:100EB00011F1933028F4992341F09130E1F510C0FD
:100EC000933021F19430B9F52CC0823731F4809100
:100ED0009D018F5F80939D012EC010929D012BC0BC
:100EE000853631F480919D018F5F80939D0123C0F1
:100EF00010929D0120C0833731F480919D018F5F56
:100F000080939D0118C010929D0115C0853631F463
:100F100080919D018F5F80939D010DC010929D0176
:100F20000AC0843731F480919D018F5F80939D01C9
:100F300002C010929D0180919D01853031F49DD0B9
:100F40008EE291E007DD10929D01089590919E013F
:100F5000913091F0913028F09230C9F0933061F5E2
:100F600021C0883631F480919E018F5F80939E016D
:100F700023C010929E0120C0853631F480919E01DD
:100F80008F5F80939E0118C010929E0115C08C3611
:100F900031F480919E018F5F80939E010DC010926D
:100FA0009E010AC0803731F480919E018F5F80934B
:100FB0009E0102C010929E0180919E01843049F4EE
:100FC0008AE391E0C7DC8AE0B6DC8DE0B4DC109205
:100FD0009E0108951F93182F68DF812FB7DF812F9F
:100FE000E6DE812F66DE812F80DD812F2DDD1F91D2
:100FF000089580E691E0AEDC8AE090E0DDDC8AE0F6
:101000009ADC8DE098DC88E791E0A4DC8AE093DC50
:101010008DE091DC0895E2E3F0E0808180648083DC
:1010200080818068808328EC30E0C9010197F1F766
:1010300080818F7B8083808180688083C901019754
:10104000F1F780818F7B808380818F778083C901D6
:101050000197F1F780818064808380818F7780831E
:10106000C9010197F1F78081806480838081806865
:101070008083C9010197F1F70895E8E3F0E08081EA
:101080008E7F808320ED37E048EC50E0CA01019765
:10109000F1F721503040D1F7E8E3F0E08081816042
:1010A000808320ED37E048EC50E0CA010197F1F76A
:1010B00021503040D1F720E23EE448EC50E0CA0134
:1010C0000197F1F721503040D1F7E8E3F0E080815B
:1010D0008D7F808320ED37E048EC50E0CA01019716
:1010E000F1F721503040D1F7E8E3F0E080818260F1
:1010F000808320ED37E048EC50E0CA010197F1F71A
:1011000021503040D1F7E8E3F0E080818D7F80838B
:1011100020ED37E048EC50E0CA010197F1F721508B
:101120003040D1F7E8E3F0E080818260808320EDF9
:1011300037E048EC50E0CA010197F1F72150304008
:10114000D1F7E8E3F0E080818D7F808320ED37E008
:1011500048EC50E0CA010197F1F721503040D1F737
:10116000E8E3F0E080818260808320ED37E048ECA6
:1011700050E0CA010197F1F721503040D1F7E8E380
:10118000F0E080818D7F808320ED37E048EC50E0F7
:10119000CA010197F1F721503040D1F7E8E3F0E0C0
:1011A00080818260808320ED37E048EC50E0CA0106
:1011B0000197F1F721503040D1F728EE33E048ECA9
:1011C00050E0CA010197F1F721503040D1F723DFF9
:1011D0000895E2E3F0E0808180648083808180680C
:1011E000808328EC30E0C9010197F1F780818064A9
:1011F000808380818F778083C9010197F1F7808197
:101200008F7B808380818F778083C9010197F1F77D
:1012100080818F7B8083808180688083C901019772
:10122000F1F7808180648083808180688083C90138
:101230000197F1F708958AE992E0BEDB0895AA1BB1
:10124000BB1B51E107C0AA1FBB1FA617B70710F0B1
:10125000A61BB70B881F991F5A95A9F780959095E3
:10126000BC01CD01089597FB092E07260AD077FD12
:1012700004D0E5DF06D000201AF4709561957F4F09
:101280000895F6F7909581959F4F0895FB019F0172
:10129000E8944230BCF04532ACF44A3029F497FB74
:1012A0001EF4909581959F4F642F7727C8DF805D4E
:1012B0008A330CF0895D8193CB010097A9F716F46E
:1012C0005DE251931082C90100C0DC01FC01672F6F
:1012D00071917723E1F7329704C07C916D9370830D
:0E12E0006291AE17BF07C8F30895F894FFCFD0
:1012EE00205065726320003530487A20737765652B
:1012FE00702031487A206CE970E97373656C2000B8
:10130E00313030487A2073776565702031487A2005
:10131E006CE970E97373656C2000323530487A20C1
:10132E0073776565702031487A206CE970E97373C4
:10133E00656C2000353030487A20737765657020F3
:10134E003130487A206CE970E97373656C20003196
:10135E006B487A207377656570203130487A206C3F
:10136E00E970E97373656C2000326B487A207377ED
:10137E00656570203130487A206CE970E9737365C9
:10138E006C20000100787878206A6F7474200066F3
:10139E00726571206A6F747420006D6178206A6FB7
:1013AE00747420006D696E206A6F7474200072650B
:1013BE00736574206A6F7474200068656C70207297
:1013CE0065736574206D696E585858206D61785834
:1013DE0058582066726571585858585858585800C1
:1013EE004444532067656E657261746F7220647237
:1013FE006976657220765F00547970652068656C39
:10140E007020666F7220636F6D6D616E64206C6903
:04141E0073740000E3
:040000050080019CDA
:00000001FF
