:100000001EC081C037C036C035C034C033C032C016
:1000100031C036C02FC095C32DC02CC02BC02AC004
:1000200029C028C027C056C460C46AC474C47EC432
:1000300091C4A4C4B7C4CAC4DDC4F0C403C51124A8
:100040001FBECFE5D4E0DEBFCDBF11E0A0E6B0E03B
:10005000E0ECF0E102C005900D92AE35B107D9F7A2
:1000600011E0AEE5B1E001C01D92AF38B107E1F794
:1000700059D024C8C5CF85E083BF81E089BF0895EA
:100080001F920F920FB60F9211242F933F934F930D
:100090005F938F939F932091CE003091CF0040913A
:1000A0005E0150915F01C901880F991F820F931F54
:1000B0009C01220F331F220F331F820F931F880FC3
:1000C000991F8417950734F41092610110925F0113
:1000D00010925E0180915E0190915F010196909374
:1000E0005F0180935E019F918F915F914F913F914E
:1000F0002F910F900FBE0F901F9018958AE085BF2B
:1001000080E48BBF08951F920F920FB60F921124B7
:100110008F9381E0809364018F910F900FBE0F90B9
:100120001F9018952F923F924F925F926F927F92FD
:100130008F929F92AF92BF92CF92DF92EF92FF92F7
:100140000F931F93CF93DF9389E190E0D4D23DD3F7
:10015000D5DF789483E088BB87E087BB8CEF82BBD8
:1001600088EF81BB81E084BB2DD60F2EFCE36F2E80
:100170007724F02D0F2EF0E64F2EF0E05F2EF02DBD
:100180000F2EF2E52F2E3324F02D0F2EF2E3EF2E5B
:10019000FF24F02D0F2EF0EDCF2EF7E0DF2EF02D07
:1001A000C8ECD0E00F2EF8E3AF2EBB24F02D00E218
:1001B0001EE40F2EF5E38F2E9924F02D809164011B
:1001C0008823E1F384E009D364E670E021D76F5F10
:1001D0007F4F669DC001679D900D769D900D112407
:1001E0009093CF008093CE008091CE009091CF006D
:1001F000B30122D7CB01C9D2C20195D2F10110823D
:100200003ADFF1E0F093610185E0E7D2909360017D
:10021000F7018081877F80839601FE013197F1F796
:1002200021503040D1F7F7018081886080839601AA
:10023000FE013197F1F721503040D1F7F70180816D
:10024000877F80839601FE013197F1F7215030407E
:10025000D1F7F7018081886080839601FE01319794
:10026000F1F721503040D1F7F7018081877F8083FB
:100270009601FE013197F1F721503040D1F7F70197
:100280008081886080839601FE013197F1F72150CB
:100290003040D1F7F7018081877F80839601FE018E
:1002A0003197F1F721503040D1F7F7018081886014
:1002B00080839601FE013197F1F721503040D1F74C
:1002C000F7018081877F80839601FE013197F1F7E6
:1002D00021503040D1F7F7018081886080839601FA
:1002E000FE013197F1F721503040D1F7F7018081BD
:1002F000877F80839601FE013197F1F721503040CE
:10030000D1F7F7018081886080839601FE013197E3
:10031000F1F721503040D1F7F7018081877F80834A
:100320009601FE013197F1F721503040D1F7F701E6
:100330008081886080839601FE013197F1F721501A
:100340003040D1F7F7018081877F80839601FE01DD
:100350003197F1F721503040D1F7F7018081886063
:1003600080839601FE013197F1F721503040D1F79B
:10037000F5018081846080839923C9F487E690E049
:10038000D2D1F50180818D7F80839601CE010197C6
:10039000F1F721503040D1F7F501808182608083F0
:1003A0009601CE010197F1F721503040D1F78091AD
:1003B00060018130C9F480E890E0B5D1F501808119
:1003C0008D7F80839601CE010197F1F72150304057
:1003D000D1F7F5018081826080839601CE0101977B
:1003E000F1F721503040D1F780916001823009F05F
:1003F0002FC08AE990E097D1F50180818D7F8083BD
:100400009601CE010197F1F721503040D1F7F50167
:100410008081826080839601CE010197F1F721509F
:100420003040D1F7F50180818D7F80839601CE0128
:100430000197F1F721503040D1F7F50180818260BA
:1004400080839601CE010197F1F721503040D1F71A
:1004500080916001833009F032C184EB90E063D178
:10046000F50180818D7F80839601CE010197F1F7A0
:1004700021503040D1F7F501808182608083960160
:10048000CE010197F1F721503040D1F7F50180817D
:100490008D7F80839601CE010197F1F72150304086
:1004A000D1F7F5018081826080839601CE010197AA
:1004B000F1F721503040D1F702C1809160018823CB
:1004C00009F03AC010926301109262016BD5C80125
:1004D0000197F1F7809162019091630101969093E9
:1004E000630180936201C2978CF3109263011092B2
:1004F00062017AD4C8010197F1F78091620190916D
:1005000063010196909363018093620184369105A3
:1005100084F3109263011092620144D5C8010197DF
:10052000F1F78091620190916301019690936301CC
:1005300080936201C2978CF380916001813009F051
:100540003CC010926301109262012CD5C801019742
:10055000F1F780916201909163010196909363019C
:10056000809362018A3F910584F310926301109297
:1005700062013AD4C8010197F1F78091620190912C
:10058000630101969093630180936201845F9140BF
:1005900084F3109263011092620104D5C80101979F
:1005A000F1F780916201909163010196909363014C
:1005B000809362018A3F910584F3809160018230CB
:1005C00009F03CC01092630110926201EBD4C801A3
:1005D0000197F1F7809162019091630101969093E8
:1005E0006301809362018436910584F31092630164
:1005F00010926201F9D3C8010197F1F7809162016D
:100600009091630101969093630180936201883C0D
:10061000910584F31092630110926201C3D4C80162
:100620000197F1F780916201909163010196909397
:100630006301809362018436910584F380916001A7
:10064000833009F03CC01092630110926201AAD479
:10065000C8010197F1F780916201909163010196C1
:100660009093630180936201845F914084F31092C0
:10067000630110926201B8D3C8010197F1F780912C
:1006800062019091630101969093630180936201EE
:10069000885E934084F3109263011092620182D4C9
:1006A000C8010197F1F78091620190916301019671
:1006B0009093630180936201845F914084F3809101
:1006C0006101882309F0F9CEF50180818B7F808359
:1006D00010926401F40180818160808320E137E21F
:1006E000CE010197F1F721503040D1F7F40180811C
:1006F0008E7F808363CDE0E4F0E0908389B988E960
:100700008AB986E880830895982FEBE2F0E0808133
:1007100085FFFDCF9CB90895EBE2F0E0808188234E
:10072000ECF78CB10895CF93DF93EC018881882397
:1007300029F02196E9DF88818823D9F7DF91CF91CD
:1007400008951F920F920FB60F9211242F933F938B
:100750004F935F936F937F938F939F93AF93BF93C9
:10076000EF93FF93D9DF1FD3FF91EF91BF91AF912B
:100770009F918F917F916F915F914F913F912F91B9
:100780000F900FBE0F901F9018950F931F93DF933C
:10079000CF93CDB7DEB727970FB6F894DEBF0FBE65
:1007A000CDBF8E010F5F1F4FB8014AE050E057D414
:1007B000C801B9DF27960FB6F894DEBF0FBECDBFD4
:1007C000CF91DF911F910F910895E7E2F0E08081D2
:1007D0008064808383E886B90895E7E2F0E0908141
:1007E000907F892B8083E6E2F0E0808180648083C3
:1007F000808186FDFDCFE6E2F0E080818064808329
:10080000808186FDFDCF84B145B1342F20E090E09A
:10081000282B392B822F932F089590916A019130C4
:1008200081F0913018F0923009F516C0883731F414
:1008300080916A018F5F80936A0118C010926A01EB
:1008400015C0883731F480916A018F5F80936A0107
:100850000DC010926A010AC0883731F480916A0194
:100860008F5F80936A0102C010926A0180916A01D1
:10087000833019F580ED90E056DFE2E3F0E080810F
:10088000877F808320ED37E048EC50E0CA01019774
:10089000F1F721503040D1F7E2E3F0E08081886049
:1008A000808320ED37E048EC50E0CA010197F1F772
:1008B00021503040D1F710926A010895982F80910D
:1008C0006901E82FF0E0EC30F10508F0CEC0ED5EF4
:1008D000FF4F0994963631F4809169018F5F8093C0
:1008E0006901C3C010926901C0C0923731F4809190
:1008F00069018F5F80936901B8C010926901B5C02A
:10090000953631F4809169018F5F80936901ADC0A4
:1009100010926901AAC0913731F4809169018F5F0B
:1009200080936901A2C0109269019FC0892F8053F2
:100930008A3068F4809169018F5F80936901892F03
:1009400090E0C0979093700180936F018EC01092D9
:1009500069018BC0892F80538A3068F480916901C6
:100960008F5F80936901892F90E0C0979093720107
:10097000809371017AC01092690177C0892F8053EA
:100980008A3068F4809169018F5F80936901892FB3
:1009900090E0C097909374018093730166C01092A9
:1009A000690163C0892F80538A3068F4809169019E
:1009B0008F5F80936901892F90E0C09790937601B3
:1009C0008093750152C0109269014FC0892F8053E6
:1009D0008A3068F4809169018F5F80936901892F63
:1009E00090E0C09790937801809377013EC0109279
:1009F00069013BC0892F80538A3068F48091690176
:100A00008F5F80936901892F90E0C09790937A015E
:100A1000809379012AC01092690127C0892F8053E1
:100A20008A3068F4809169018F5F80936901892F12
:100A300090E0C09790937C0180937B0116C0109248
:100A4000690113C0892F80538A3068F4809169014D
:100A50008F5F80936901892F90E0C09790937E010A
:100A600080937D0102C010926901809169018C30F0
:100A700041F48AED90E057DE8FE691E0C5D2109206
:100A80006901089590916801923031F1933030F40A
:100A9000992361F0913009F056C013C09430B1F140
:100AA000943028F1953009F04EC03FC08D3631F4B6
:100AB000809168018F5F8093680145C01092680142
:100AC00042C0813631F4809168018F5F8093680164
:100AD0003AC01092680137C0883731F480916801BC
:100AE0008F5F809368012FC0109268012CC0982FEF
:100AF00090539A3040F4809168018F5F8093680131
:100B000090936D0120C0109268011DC0982F9053E2
:100B10009A3040F4809168018F5F809368019093D0
:100B20006C0111C0109268010EC0982F90539A303A
:100B300040F4809168018F5F8093680190936B010E
:100B400002C010926801809168018630C1F485EE80
:100B500090E0E9DD80916D0120916C0150916B0175
:100B600044E6849FC00111244AE0249F900111248F
:100B7000820F931F850F911D08DE10926801089562
:100B800090916701923031F1933030F4992361F004
:100B9000913009F056C013C09430B1F1943028F16F
:100BA000953009F04EC03FC08D3631F48091670119
:100BB0008F5F8093670145C01092670142C08936FC
:100BC00031F4809167018F5F809367013AC0109282
:100BD000670137C08E3631F4809167018F5F809353
:100BE00067012FC0109267012CC0982F90539A3044
:100BF00040F4809167018F5F8093670190936D014E
:100C000020C0109267011DC0982F90539A3040F475
:100C1000809167018F5F8093670190936C0111C091
:100C2000109267010EC0982F90539A3040F4809133
:100C300067018F5F8093670190936B0102C01092F0
:100C40006701809167018630C1F48FEE90E06BDD23
:100C500080916D0120916C0150916B0144E6849F5D
:100C6000C00111244AE0249F90011124820F931F98
:100C7000850F911D8ADD109267010895909165019D
:100C8000923011F1933028F4992341F09130E1F53D
:100C900010C0933021F19430B9F52CC0823731F473
:100CA000809165018F5F809365012EC01092650170
:100CB0002BC0853631F4809165018F5F809365018B
:100CC00023C01092650120C0833731F48091650103
:100CD0008F5F8093650118C01092650115C085363D
:100CE00031F4809165018F5F809365010DC0109292
:100CF00065010AC0843731F4809165018F5F80936C
:100D0000650102C01092650180916501853031F462
:100D10009DD089EF90E007DD1092650108959091D4
:100D20006601913091F0913028F09230C9F0933003
:100D300061F521C0883631F4809166018F5F809320
:100D4000660123C01092660120C0853631F480917F
:100D500066018F5F8093660118C01092660115C00E
:100D60008C3631F4809166018F5F809366010DC0EF
:100D7000109266010AC0803731F4809166018F5F5E
:100D80008093660102C010926601809166018430F2
:100D900049F485E091E0C7DC8AE0B6DC8DE0B4DCA4
:100DA0001092660108951F93182F68DF812FB7DF17
:100DB000812FE6DE812F66DE812F80DD812F2DDD04
:100DC0001F9108958BE291E0AEDC8AE090E0DDDCDB
:100DD0008AE09ADC8DE098DC83E491E0A4DC8AE090
:100DE00093DC8DE091DC0895E2E3F0E080818064A3
:100DF000808380818068808328EC30E0C90101977E
:100E0000F1F780818F7B8083808180688083C90136
:100E10000197F1F780818F7B808380818F7780833A
:100E2000C9010197F1F780818064808380818F7789
:100E30008083C9010197F1F780818064808380817C
:100E400080688083C9010197F1F70895E8E3F0E035
:100E500080818E7F808320ED37E048EC50E0CA012E
:100E60000197F1F721503040D1F7E8E3F0E08081BD
:100E70008160808320ED37E048EC50E0CA010197A3
:100E8000F1F721503040D1F720E23EE448EC50E049
:100E9000CA010197F1F721503040D1F7E8E3F0E0C3
:100EA00080818D7F808320ED37E048EC50E0CA01DF
:100EB0000197F1F721503040D1F7E8E3F0E080816D
:100EC0008260808320ED37E048EC50E0CA01019752
:100ED000F1F721503040D1F7E8E3F0E080818D7FD9
:100EE000808320ED37E048EC50E0CA010197F1F72C
:100EF00021503040D1F7E8E3F0E0808182608083C8
:100F000020ED37E048EC50E0CA010197F1F721509D
:100F10003040D1F7E8E3F0E080818D7F808320EDE1
:100F200037E048EC50E0CA010197F1F7215030401A
:100F3000D1F7E8E3F0E080818260808320ED37E044
:100F400048EC50E0CA010197F1F721503040D1F749
:100F5000E8E3F0E080818D7F808320ED37E048EC8E
:100F600050E0CA010197F1F721503040D1F7E8E392
:100F7000F0E080818260808320ED37E048EC50E033
:100F8000CA010197F1F721503040D1F728EE33E044
:100F900048EC50E0CA010197F1F721503040D1F7F9
:100FA00023DF0895E2E3F0E0808180648083808124
:100FB0008068808328EC30E0C9010197F1F78081D7
:100FC0008064808380818F778083C9010197F1F7E6
:100FD00080818F7B808380818F778083C901019797
:100FE000F1F780818F7B8083808180688083C90155
:100FF0000197F1F78081806480838081806880839D
:10100000C9010197F1F708958AE992E0BEDB0895DE
:10101000AA1BBB1B51E107C0AA1FBB1FA617B7071E
:1010200010F0A61BB70B881F991F5A95A9F780953A
:101030009095BC01CD01089597FB092E07260AD093
:1010400077FD04D0E5DF06D000201AF47095619595
:101050007F4F0895F6F7909581959F4F0895FB0176
:101060009F01E8944230BCF04532ACF44A3029F498
:1010700097FB1EF4909581959F4F642F7727C8DFCB
:10108000805D8A330CF0895D8193CB010097A9F7CD
:1010900016F45DE251931082C90100C0DC01FC012D
:1010A000672F71917723E1F7329704C07C916D939C
:1010B00070836291AE17BF07C8F30895F894FFCF0D
:1010C000205065726320003530487A20737765655B
:1010D000702031487A206CE970E97373656C2000E8
:1010E000323530487A2073776565702031487A2030
:1010F0006CE970E97373656C2000316B487A20737A
:1011000077656570203130487A206CE970E9737337
:10111000656C2000356B487A2073776565702031E7
:1011200030487A206CE970E97373656C2000010027
:10113000787878206A6F7474200066726571206A0E
:101140006F747420006D6178206A6F747420006D74
:10115000696E206A6F747420007265736574206A0A
:101160006F7474200068656C7020726573657420FC
:101170006D696E585858206D6178585858206672BD
:101180006571585858585858585800444453206767
:10119000656E657261746F72206472697665722023
:1011A000765F00547970652068656C7020666F7298
:0E11B00020636F6D6D616E64206C6973740056
:040000050080016412
:00000001FF
