:100000000C942A000C9447000C9447000C94470071
:100010000C9447000C9447000C9447000C94470044
:100020000C9447000C9447000C9447000C94470034
:100030000C9447000C9447000C9447000C94470024
:100040000C9447000C9447000C9447000C94470014
:100050000C94470011241FBECFE5D4E0DEBFCDBF16
:1000600010E0A0E6B0E0ECEEF1E002C005900D92E9
:10007000A036B107D9F710E0A0E6B0E001C01D92AC
:10008000A237B107E1F70E94DB000C94F4000C9456
:100090000000BF92CF92DF92EF92FF920F931F93D7
:1000A000B0906000C0906100D0906200E09063006A
:1000B000F09064000091650010916600B0916700B7
:1000C000A0916800F0916900E0916A0070916B0066
:1000D00060916C0050916D0040916E0030916F0006
:1000E000209170009091710080E08B1510F4D89AE7
:1000F00001C0D8988C1510F4D99A01C0D9988D15E3
:1001000010F4DA9A01C0DA988E1510F4DB9A01C067
:10011000DB988F1510F4DC9A01C0DC98801710F47E
:10012000DD9A01C0DD98811710F4DE9A01C0DE98D7
:100130008B1710F4DF9A01C0DF988A1710F4D89A51
:1001400001C0D8988F1710F4D89A01C0D8988E178C
:1001500010F4D89A01C0D898871710F4D89A01C023
:10016000D898861710F4D89A01C0D898851710F43B
:10017000D89A01C0D898841710F4D89A01C0D8989A
:10018000831710F4D89A01C0D898821710F4D89A1F
:1001900001C0D898891710F4D89A01C0D8988F5FF9
:1001A0008F3F09F0A2CF1F910F91FF90EF90DF904A
:1001B000CF90BF9008959FEF9ABB8EEF8093600021
:1001C000109261002AEF209362009093630086E30F
:1001D00080936400909365008DE280936600209385
:0C01E00067000E944900FDCFF894FFCF9B
:00000001FF
