:1000000022C03CC03BC03AC039C038C037C036C03F
:1000100035C034C033C032C031C030C02FC059C029
:1000200066C073C080C08DC09AC0A7C0B4C0C1C034
:10003000CEC0F5C002C10FC11CC129C136C143C128
:1000400050C15DC16AC111241FBECFE5D1E0DEBF42
:10005000CDBF10E0A0E6B0E0E4E4F4E002C005901B
:100060000D92A036B107D9F710E0A0E6B0E001C0CC
:100070001D92A036B107E1F797D1E2C1C1CF84E06C
:1000800084BB81E287B984E886B9369A349BFECF77
:10009000349885B190E00895282F90E0822F8170E8
:1000A0008295807F88BBC39AC39826959F5F9830BE
:1000B000A9F70895C39AC39808958A3008F095C0A7
:1000C000E82FF0E0EA30F10508F09AC0E15FFF4F59
:1000D00009942EEB90E0822F81708295807F88BBFF
:1000E000C39AC39826959F5F9830A9F789C028E1E5
:1000F00090E0822F81708295807F88BBC39AC398DD
:1001000026959F5F9830A9F77BC02BEA90E0822F5D
:1001100081708295807F88BBC39AC39826959F5F24
:100120009830A9F76DC02BE990E0822F81708295FD
:10013000807F88BBC39AC39826959F5F9830A9F7A4
:100140005FC02DE190E0822F81708295807F88BB17
:10015000C39AC39826959F5F9830A9F751C027E9A5
:1001600090E0822F81708295807F88BBC39AC3986C
:1001700026959F5F9830A9F743C027EB90E0822F28
:1001800081708295807F88BBC39AC39826959F5FB4
:100190009830A9F735C02AE190E0822F81708295CE
:1001A000807F88BBC39AC39826959F5F9830A9F734
:1001B00027C02FEB90E0822F81708295807F88BBD3
:1001C000C39AC39826959F5F9830A9F719C02FE965
:1001D00090E0822F81708295807F88BBC39AC398FC
:1001E00026959F5F9830A9F70BC081E090E082953B
:1001F000807F88BBC39AC3989F5F80E09830B9F72F
:1002000081E088BB08958A3008F095C0E82FF0E0BF
:10021000EA30F10508F09AC0E75EFF4F09942EEB33
:1002200090E0822F81708295807F88BBC39AC398AB
:1002300026959F5F9830A9F789C028E190E0822F2A
:1002400081708295807F88BBC39AC39826959F5FF3
:100250009830A9F77BC02BEA90E0822F81708295BD
:10026000807F88BBC39AC39826959F5F9830A9F773
:100270006DC02BE990E0822F81708295807F88BBD2
:10028000C39AC39826959F5F9830A9F75FC02DE168
:1002900090E0822F81708295807F88BBC39AC3983B
:1002A00026959F5F9830A9F751C027E990E0822FEB
:1002B00081708295807F88BBC39AC39826959F5F83
:1002C0009830A9F743C027EB90E0822F8170829588
:1002D000807F88BBC39AC39826959F5F9830A9F703
:1002E00035C02AE190E0822F81708295807F88BBA3
:1002F000C39AC39826959F5F9830A9F727C02FEB24
:1003000090E0822F81708295807F88BBC39AC398CA
:1003100026959F5F9830A9F719C02FE990E0822FAA
:1003200081708295807F88BBC39AC39826959F5F12
:100330009830A9F70BC081E090E08295807F88BB60
:10034000C39AC3989F5F80E09830B9F782E088BB7A
:100350000895DF92EF92FF920F931F93CF93DF9355
:100360009C016AE070E045D0D62EC9016AE070E0D9
:1003700040D07C01C0E0D0E008EC10E08D2D9DDE87
:10038000C8010197F1F7C7013EDFC8010197F1F7F6
:100390002196CF3FD10591F7DF91CF911F910F911A
:1003A000FF90EF90DF900895FF920F931F93CF93EC
:1003B000DF938FEF87BB94E094BB81E087B984E83B
:1003C00086B998BBC0E0D0E084E0F82E01E214E8E2
:1003D000F4BA07B916B9369A349BFECF349885B172
:1003E00090E0B7DF2196C83CD10594F3C0E0D0E09F
:1003F000EFCF97FB092E07260AD077FD04D00CD04B
:1004000006D000201AF4709561957F4F0895F6F795
:10041000909581959F4F0895AA1BBB1B51E107C082
:10042000AA1FBB1FA617B70710F0A61BB70B881F84
:10043000991F5A95A9F780959095BC01CD01089513
:04044000F894FFCF5E
:00000001FF
