:1000000012C02CC02BC02AC029C028C027C026C0BF
:1000100025C03CC023C022C021C020C01FC01EC0BC
:100020001DC01CC01BC011241FBECFE5D4E0DEBF25
:10003000CDBF10E0A0E6B0E0ECE6F3E002C0059032
:100040000D92A436B107D9F710E0A4E6B0E001C0E4
:100050001D92AC36B107E1F742D086C1D1CF97B13E
:10006000907F982B97B9369A3699FECF369A369963
:10007000FECF85B1089587B1806687B983E886B9D8
:10008000089583E083BF81E089BF08951F920F9296
:100090000FB60F9211242F938F939F93809164003A
:1000A0009091650001969093650080936400809123
:1000B000640090916500825C914049F41092650063
:1000C00010926400809166008F5F809366009F911C
:1000D0008F912F910F900FBE0F901F9018951F9327
:1000E000CF93DF9383E083BF81E089BF87B18066D0
:1000F00087B983E886B983E078D081E060E04ED0AC
:100100007894C9E1D0E087B1807F856087B9369A5D
:100110003699FECF369A3699FECF15B180E060E071
:10012000F4D0812F90E063E070E094D08FE060E045
:10013000ECD080E690E081D080E197E2FE0131973B
:10014000F1F70197D9F7DFCF87B3807F87BB969A06
:10015000959881E08A95F1F721E0979A822F8A9508
:10016000F1F786B38295807F922F9A95F1F7979851
:10017000922F9A95F1F7979A922F9A95F1F796B355
:10018000922F9A95F1F79798922F9A95F1F787FD0C
:10019000E4CF969887B38F6087BB0895382F662386
:1001A00011F4959801C0959A21E0822F8A95F1F774
:1001B000979A88B3932F92959F70807F982B98BBC6
:1001C000822F8A95F1F79798822F8A95F1F7979A5F
:1001D00088B33F70807F832B88BB822F8A95F1F78D
:1001E00097982A95F1F7B0DF08951F93182F8CE4A4
:1001F0009DE10197F1F787B38F6087BB8F9A8D9A46
:100200008E9A88B3807F88BB97989698959881E05E
:10021000982F9A95F1F7979AC19A982F9A95F1F796
:1002200097988A95F1F790DF812F8C6060E0B6DFB8
:1002300088E260E0B3DF1F910895CF93DF93EC0174
:1002400003C061E0ABDF219688818823D1F7DF917D
:10025000CF910895EF92FF920F931F93DF93CF9367
:1002600000D000D00F92CDB7DEB79C018B01FE010C
:10027000319685E0DF011D928A95E9F7FE013596FA
:100280000BC0C9016AE070E048D08083C9016AE010
:1002900070E043D09B0131972115310591F7BFEFF5
:1002A0000F3F1B0779F420E030E0AE014F5F5F4F56
:1002B00002C02F5F3F4FFA01E20FF31F80818823B6
:1002C000C1F304C025E030E0201B310B7E0108940F
:1002D000E11CF11CE20EF31E890108C0F7018191B7
:1002E0007F01805D61E05ADF0F5F1F4F0530110510
:1002F000ACF30F900F900F900F900F90CF91DF9174
:100300001F910F91FF90EF900895883228F46111AA
:100310008064806860E042DF089597FB092E07261D
:100320000AD077FD04D00CD006D000201AF47095C6
:1003300061957F4F0895F6F7909581959F4F0895A9
:10034000AA1BBB1B51E107C0AA1FBB1FA617B707FB
:1003500010F0A61BB70B881F991F5A95A9F7809517
:0C0360009095BC01CD010895F894FFCFEA
:04036C004300310E0B
:00000001FF
