:100000000C942A000C9447000C9460000C94470058
:100010000C9447000C9447000C9447000C94470044
:100020000C9447000C9449000C9447000C94A004D5
:100030000C9447000C9447000C9447000C94470024
:100040000C9447000C9447000C9447000C94470014
:100050000C94470011241FBECFE5D4E0DEBFCDBF16
:1000600010E0A0E6B0E0E6EAFAE002C005900D92EA
:10007000A038B107D9F710E0A0E8B0E001C01D92A8
:10008000A838B107E1F70E94EB000C9451050C94DD
:1000900000001F920F920FB60F9211248F93809140
:1000A00080008F5F8093800080918000873011F402
:1000B000109280008F910F900FBE0F901F90189597
:1000C0001F920F920FB60F9211248F9381E08093AD
:1000D00081008F910F900FBE0F901F901895FF9287
:1000E0000F931F93CF93DF93F82EC1E0D0E011C0A0
:1000F00082EAB8014F2D0E94630282EABE014FEFEF
:100100000E946302DF91CF911F910F91FF9008959C
:1001100021968E010150104040918400509185003D
:1001200082EAB8010E94AF02E0918400F09185005C
:1001300080818F3F69F7DCCF0F931F93CF93DF93BD
:10014000409184005091850082EA60E070E00E9456
:10015000AF02C0E0D0E00DE710E031C0808190E058
:1001600023E0880F991F2A95E1F79C01209FC00189
:10017000219F900D309F900D112468EE73E00E9436
:100180002A05CB010E94780483E40E94660480E281
:100190000E94660480E060E00E945604E0918400C2
:1001A000F0918500808161E00E9488032196409152
:1001B00084005091850082EABE010E94AF02E09166
:1001C0008400F091850080818F3F41F6DF91CF91CF
:1001D0001F910F910895CF92DF92EF92FF921F939C
:1001E000CF93DF9385E083BF81E089BF8FE991E002
:1001F0000E945F0483E00E94B60381E060E00E94F9
:10020000880388E085BF80E88BBF17BA78945DE7E4
:10021000C52ED12C40E5E42E43ECF42EC2E3D0E011
:1002200010E080918000882309F04BC0112309F071
:1002300048C00E94C9049C012C9DC0012D9D900DB9
:100240003C9D900D1124909387008093860080E060
:1002500060E00E945604809186009091870068EECD
:1002600073E00E942A05CB0162E070E00E94F8036F
:1002700080E690E00E94EA0383E060E00E9456047A
:10028000809186009091870068EE73E00E942A05B5
:1002900063E070E00E94F8038FED61E00E94880344
:1002A00087E060E00E94560482E690E00E94EA0344
:1002B0000E94C90433E0959587953A95E1F70E942D
:1002C0006F0080918100813009F0ABCF60E00E9427
:1002D000880384E690E00E94EA03C7010197F1F7E2
:1002E000B09902C011E031C080E060E00E94560485
:1002F00089E690E00E94EA0382EA60E070E04FEF56
:100300000E94630284EC99E0FE013197F1F70197B6
:10031000D9F784EC99E0FE013197F1F70197D9F70D
:1003200084EC99E0FE013197F1F70197D9F784EC5D
:1003300099E0FE013197F1F70197D9F781E060E08C
:100340000E9488031092810010E0B19B6ACF80E088
:1003500060E00E94560486E790E00E94EA030E9453
:100360009C0084EC99E0FE013197F1F70197D9F7F1
:1003700084EC99E0FE013197F1F70197D9F784EC0D
:1003800099E0FE013197F1F70197D9F784EC99E0F4
:10039000FE013197F1F70197D9F781E060E00E9403
:1003A0008803109281003CCF85B3827085BB85B3F2
:1003B000817085BBA198A0980895A09885E090E0F1
:1003C000FC013197F1F7A19A0197F1F70895A19AED
:1003D00085E090E0FC013197F1F7A098E3E0F0E0D0
:1003E0003197F1F7A1980197F1F7089590E043E074
:1003F00050E025E030E0A09AFA013197F1F787FF4D
:1004000002C0A19801C0A19AF9013197F1F7A09813
:10041000F9013197F1F7989BFECF9F5F983011F06B
:10042000880FE9CFA09A83E090E00197F1F7A198B7
:1004300025E030E0C9010197F1F7A098C9010197C3
:10044000F1F783B3A09AF9013197F1F7869580957A
:1004500081700895582F40E020E030E065E070E0C2
:10046000E0E8F0E0A09ACB010197F1F7A098CB016A
:100470000197F1F7989BFECF999B08C0CF01022E00
:1004800002C0959587950A94E2F7482B2F5F3F4F5E
:100490002830310539F7A09A83E090E00197F1F711
:1004A000552311F0A19A01C0A19885E090E0FC01CC
:1004B0003197F1F7A098FC013197F1F7A09A0197D5
:1004C000F1F7842F0895FF920F931F93CF93DF933B
:1004D0008B01F42EA098C5E0D0E0FE013197F1F732
:1004E000A19AFE013197F1F78E7F0E94F6018823D1
:1004F00079F0812F0E94F601882351F0802F0E940D
:10050000F601882329F08F2D0E94F601882379F4C3
:10051000A19ACE010197F1F7A09883E090E00197AE
:10052000F1F7A198CE010197F1F780E012C0A19AEE
:10053000CE010197F1F7A09883E090E00197F1F7E1
:10054000A198CE010197F1F784EC99E00197F1F7BA
:1005500081E0DF91CF911F910F91FF900895DF927D
:10056000EF92FF920F931F93CF93DF93182FD62E06
:10057000072F7A01A098C5E0D0E0CE010197F1F7EE
:10058000A19ACE010197F1F71E7F812F0E94F601FB
:100590008823C1F0802F0E94F601882399F08D2DC9
:1005A0000E94F601882371F0A098CE010197F1F71F
:1005B000A19ACE010197F1F7812F81600E94F60187
:1005C000882379F4A19ACE010197F1F7A09883E0EE
:1005D00090E00197F1F7A198CE010197F1F780E043
:1005E00013C080E00E942A02F7018083A19ACE0105
:1005F0000197F1F7A09883E090E00197F1F7A198B7
:10060000CE010197F1F781E0DF91CF911F910F911A
:10061000FF90EF90DF900895EF92FF920F931F935A
:10062000CF93DF93182F062F7A01A098C5E0D0E072
:10063000CE010197F1F7A19ACE010197F1F71E7F44
:10064000812F0E94F601882339F1802F0E94F60144
:10065000882311F1A098CE010197F1F7A19ACE015C
:100660000197F1F7812F81600E94F6018823A1F0A4
:1006700080E00E942A02F7018083A19ACE010197AF
:10068000F1F7A09883E090E00197F1F7A198CE01EF
:100690000197F1F781E001C080E0DF91CF911F91D8
:1006A0000F91FF90EF9008950F931F93CF93DF93D7
:1006B000162F042FA098C5E0D0E0FE013197F1F786
:1006C000A19AFE013197F1F78E7F0E94F6018823EF
:1006D000C9F0812F0E94F6018823A1F0802F0E948B
:1006E000F601882379F0A19ACE010197F1F7A0983D
:1006F00083E090E00197F1F7A198CE010197F1F71F
:1007000081E001C080E0DF91CF911F910F910895AA
:10071000382F662311F4D89801C0D89A21E0822F8F
:100720008A95F1F7D99A8BB38F708BBB9BB3832FCC
:10073000807F892B8BBB822F8A95F1F7D998822FE6
:100740008A95F1F7D99A8BB38F708BBB8BB33295A7
:10075000307F832B8BBB822F8A95F1F7D9982A950E
:10076000F1F784EC99E00197F1F70895EF92FF9289
:100770000F931F93082F88E9E82E8AE3F82EC7010C
:100780000197F1F78FEF8ABBD998D89811E0812FA4
:100790008A95F1F7D99A82E060E00E948803812F60
:1007A0008A95F1F7D9981A95F1F7C7010197F1F7F2
:1007B000802F8C6060E00E94880388E260E00E94E5
:1007C000880388EA91E60197F1F71F910F91FF9056
:1007D000EF900895CF93DF93EC0104C061E00E9495
:1007E0008803219688818823C9F7DF91CF910895E6
:1007F000EF92FF920F931F93DF93CF9300D000D01F
:100800000F92CDB7DEB79C018B01FE01319685E0DA
:10081000DF011D928A95E9F7FE0135960DC0C901E9
:100820006AE070E00E942A058083C9016AE070E0F6
:100830000E942A059B0131972115310581F7BFEFF1
:100840000F3F1B0779F420E030E0AE014F5F5F4FB0
:1008500002C02F5F3F4FFA01E20FF31F8081882310
:10086000C1F304C025E030E0201B310B7E01089469
:10087000E11CF11CE20EF31E890109C0F701819110
:100880007F01805D61E00E9488030F5F1F4F05308C
:100890001105A4F30F900F900F900F900F90CF9130
:1008A000DF911F910F91FF90EF900895883230F4FF
:1008B00061118064806860E00E948803089590BDA3
:1008C00089B988E18AB986E880BD08955D9BFECF2D
:1008D0008CB908955F9BFECF8CB10895FC0104C0D4
:1008E0005D9BFECF31968CB980818823C9F708952E
:1008F0000F931F93DF93CF93CDB7DEB727970FB634
:10090000F894DEBF0FBECDBF8E010F5F1F4FB80141
:100910004AE050E00E94F904F80104C05D9BFECF5C
:1009200031968CB980818823C9F727960FB6F89441
:10093000DEBF0FBECDBFCF91DF911F910F91089504
:100940001F920F920FB60F9211242F933F934F9344
:100950005F936F937F938F939F93AF93BF93EF9327
:10096000FF935F9BFECF8CB181E090E00E94780402
:10097000FF91EF91BF91AF919F918F917F916F9177
:100980005F914F913F912F910F900FBE0F901F904D
:1009900018950F931F930E94DD0180E90E94F601D4
:1009A000882309F180E00E94F6018823E1F00E948B
:1009B000DD0181E90E94F6018823A9F080E00E9410
:1009C0002A02082F81E00E942A02182F0E94E701C4
:1009D000902F80E09C01210F311D85E035952795F2
:1009E0008A95E1F702C020E030E0C9011F910F9124
:1009F0000895FB019F01E8944230C4F04532B4F4FD
:100A00004A3029F497FB1EF4909581959F4F642FEF
:100A100077270E943D05805D8A330CF0895D8193C4
:100A2000CB010097A1F716F45DE251931082C90142
:100A30000C941A05DC01FC01672F71917723E1F713
:100A4000329704C07C916D9370836291AE17BF079B
:100A5000C8F3089597FB092E07260AD077FD04D026
:100A60000CD006D000201AF4709561957F4F089540
:100A7000F6F7909581959F4F0895AA1BBB1B51E1F6
:100A800007C0AA1FBB1FA617B70710F0A61BB70BFE
:100A9000881F991F5A95A9F780959095BC01CD01A3
:060AA0000895F894FFCF59
:100AA6002E0043004D454E5500454550524F4D20B2
:100AB600434C45415200444154412053454E440065
:00000001FF
