:1000000012C032C055C02AC029C028C027C026C08F
:1000100025C06FC123C0D0C121C020C01FC01EC0D9
:100020001DC01CC01BC011241FBECFE5D4E0DEBF25
:10003000CDBF11E0A0E6B0E0EEEEF3E102C0059026
:100040000D92AC36B107D9F711E0ACE6B1E001C0D2
:100050001D92A637B107E1F74FD0C7C9D1CF8AE0CB
:1000600085BF80EC8BBF08951F920F920FB60F9241
:1000700011242F933F938F939F93EF93FF9380913E
:1000800073018F5F8093730188EE93E028EB30E07B
:10009000F9013197F1F70197D9F7FF91EF919F910E
:1000A0008F913F912F910F900FBE0F901F90189539
:1000B0001F920F920FB60F9211242F933F938F939D
:1000C0009F93EF93FF93809174018F5F80937401EE
:1000D00088EE93E028EB30E0F9013197F1F70197D2
:1000E000D9F7FF91EF919F918F913F912F910F90B1
:1000F0000FBE0F901F901895CF93DF938FE590E080
:100100007DD08BD0789483E0E3D181E060E0B9D1F9
:10011000EBD08AE085BF80EC8BBF10927401109207
:100120007301C8EBD0E080E060E062D2809173019F
:1001300090E062E070E001D282E060E059D280E6B7
:1001400090E0EED183E060E053D28091740190E0C2
:1001500062E070E0F2D185E060E04AD280E690E0B3
:10016000DFD186E060E044D28091750190E062E0EA
:1001700070E0E3D18AE060E03BD260916E01709163
:100180006F01809170019091710120E030E048ECA6
:1001900052E4EFD41AD6DC01CB0163E070E0CDD19C
:1001A0008FED61E06ED18EE060E022D282E690E0D9
:1001B000B7D188EE93E0FE013197F1F70197D9F7B7
:1001C000809175018C3339F410927501809174011E
:1001D0008F5F80937401809174018C3339F4109295
:1001E0007401809173018F5F80937301809173011B
:1001F000883109F098CF1092730195CF90BD89B9DD
:1002000088E98AB986E880BD08955D9BFECF8CB9E8
:1002100008955F9BFECF8CB108953E9A83E886B91E
:10022000089597B1907F982B97B9369A3699FECF5B
:10023000369A3699FECF24B145B1942F80E030E054
:10024000282B392BC9010895FC0104C05D9BFECF0A
:1002500031968CB980818823C9F70895EF92FF9277
:100260000F931F93CF93DF93EE24FF248701C0E009
:10027000D0E085E0D6DFA0E0B0E0E80EF91E0A1F6E
:100280001B1F2196C436D105A1F7C801B70124E68A
:1002900030E040E050E021D8CA01B901DF91CF91B0
:1002A0001F910F91FF90EF900895D8DF34D520E093
:1002B00030E04AEF53E468D320E030EC4FE754E4F9
:1002C00058D420E030E848E853E40CD320E030E094
:1002D00048EC52E459D360936E0170936F018093A0
:1002E000700190937101089583E083BF81E089BF1D
:1002F00008951F920F920FB60F9211242F933F93E0
:100300004F935F936F937F938F939F93AF93BF931D
:10031000EF93FF9380916C0190916D010196909302
:100320006D0180936C0180916C0190916D01825CF4
:10033000914051F410926D0110926C018091750101
:100340008F5F80937501B1DFFF91EF91BF91AF9106
:100350009F918F917F916F915F914F913F912F91DD
:100360000F900FBE0F901F9018950F931F93DF9360
:10037000CF93CDB7DEB727970FB6F894DEBF0FBE89
:10038000CDBF8E010F5F1F4FB8014AE050E063D729
:10039000F80104C05D9BFECF31968CB98081882323
:1003A000C9F727960FB6F894DEBF0FBECDBFCF9129
:1003B000DF911F910F9108951F920F920FB60F9228
:1003C00011242F933F934F935F936F937F938F935A
:1003D0009F93AF93BF93EF93FF935F9BFECF8CB13F
:1003E00064DF60916E0170916F0180917001909156
:1003F000710106D1DC01CB01B8DF5D9BFECF8AE045
:100400008CB95D9BFECF8DE08CB9FF91EF91BF91D0
:10041000AF919F918F917F916F915F914F913F919C
:100420002F910F900FBE0F901F90189587B3807F6C
:1004300087BB969A959881E08A95F1F721E032E0A2
:10044000979A822F8A95F1F786B38295807F922FB3
:100450009A95F1F79798932F9A95F1F7979A922F8B
:100460009A95F1F796B3922F9A95F1F79798932F63
:100470009A95F1F787FDE4CF969887B38F6087BB95
:100480000895282F662311F4959801C0959A81E06C
:100490008A95F1F7979A88B3922F92959F70807FF3
:1004A000982B98BB92E0892F8A95F1F79798892F1E
:1004B0008A95F1F7979A88B32F70807F822B88BB3B
:1004C000892F8A95F1F797989A95F1F7AFDF0895FC
:1004D0001F93182F80E098ED0197F1F787B38F6095
:1004E00087BB8F9A8D9A8E9A88B3807F88BB9798A6
:1004F0009698959881E08A95F1F7979AC19A82E04B
:10050000982F9A95F1F797988A95F1F78FDF812FB9
:100510008C6060E0B6DF88E260E0B3DF1F91089591
:10052000CF93DF93EC0103C061E0ABDF21968881BC
:100530008823D1F7DF91CF910895EF92FF920F9327
:100540001F93DF93CF9300D000D00F92CDB7DEB7CB
:100550009C018B01FE01319685E0DF011D928A9599
:10056000E9F7FE0135960BC0C9016AE070E0A2D63A
:100570008083C9016AE070E09DD69B013197211507
:10058000310591F7BFEF0F3F1B0779F420E030E012
:10059000AE014F5F5F4F02C02F5F3F4FFA01E20F86
:1005A000F31F80818823C1F304C025E030E0201BC5
:1005B000310B7E010894E11CF11CE20EF31E89014F
:1005C00008C0F70181917F01805D61E05ADF0F5F14
:1005D0001F4F05301105ACF30F900F900F900F9047
:1005E0000F90CF91DF911F910F91FF90EF900895A1
:1005F000883228F461118064806860E042DF0895E9
:10060000EF92FF920F931F937B018C0120E030E06B
:1006100040E05FE455D388237CF0C801B70120E0B7
:1006200030E040E05FE45ED1D0D39B01AC012050CC
:1006300030404040504805C0C801B701C6D39B01B7
:10064000AC01B901CA011F910F91FF90EF9008957D
:10065000A0E0B0E0EDE2F3E091C6DC012B01FA018D
:100660009C91923008F439C1EB018881823008F402
:1006700033C1943069F4843009F02FC111969C91F4
:1006800011978981981709F428C1A4E6B0E025C123
:10069000843009F421C18230A9F4923009F01DC1DF
:1006A0009A01AD0188E0EA010990AE01E9010992E1
:1006B0009E018150C1F7E201898111969C918923A5
:1006C000818308C1923009F407C112962D903C90A5
:1006D0001397EB018A819B811496AD90BD90CD90CC
:1006E000DC901797EC80FD800E811F819101281B03
:1006F000390BB90137FF04C066277727621B730BDC
:10070000603271050CF061C0121613066CF53701EA
:100710004801062E04C096948794779467940A94AF
:10072000D2F721E030E040E050E004C0220F331F58
:10073000441F551F6A95D2F7215030404040504029
:100740002E213F214023512321153105410551051B
:1007500021F021E030E040E050E079018A01E62814
:10076000F728082919293CC0232BD1F1260E371E62
:1007700035014601062E04C09694879477946794B9
:100780000A94D2F721E030E040E050E004C0220FAC
:10079000331F441F551F6A95D2F721503040404007
:1007A00050402A213B214C215D2121153105410575
:1007B000510521F021E030E040E050E059016A01AC
:1007C000A628B728C828D9280BC0821593052CF075
:1007D0001C01AA24BB24650103C0EE24FF24870169
:1007E00011969C91D20111968C91981709F445C0ED
:1007F000992339F0A80197012A193B094C095D0991
:1008000006C0A60195012E193F09400B510B57FD5B
:1008100008C0118233822282248335834683578322
:100820001DC081E081833382228288279927DC01E1
:10083000821B930BA40BB50B84839583A683B7838C
:100840000DC0220F331F441F551F24833583468359
:100850005783828193810197938382832481358199
:1008600046815781DA01C9010197A109B1098F5F5A
:100870009F4FAF4FBF4328F30BC091833382228237
:10088000EA0CFB1C0C1D1D1DE482F58206831783F8
:1008900083E08083248135814681578157FF1AC0C8
:1008A000C901AA2797FDA095BA2F81709070A070FA
:1008B000B0705695479537952795822B932BA42B8F
:1008C000B52B84839583A683B78382819381019618
:1008D00093838283DF0101C0D201CD01CDB7DEB7A2
:1008E000E2E168C5A0E2B0E0E7E7F4E053C5698360
:1008F0007A838B839C832D833E834F835887E9E0E3
:10090000EE2EF12CEC0EFD1ECE010196B701D2D3D6
:100910008E010F5E1F4FCE010596B801CBD38A8999
:1009200091E089278A8BC701B801AE01475E5F4F0E
:100930008FDEEBD2A096E6E049C5A0E2B0E0E2EAA5
:10094000F4E028C569837A838B839C832D833E835F
:100950004F835887F9E0EF2EF12CEC0EFD1ECE01EF
:100960000196B701A7D38E010F5E1F4FCE010596EA
:10097000B801A0D3C701B801AE01475E5F4F68DE82
:10098000C4D2A096E6E022C5A0E2B0E0E9ECF4E033
:10099000F5C469837A838B839C832D833E834F8345
:1009A0005887CE010196BE01675F7F4F83D3CE018A
:1009B0000596BE016F5E7F4F7DD39985923088F09A
:1009C00089898230C8F0943019F4823051F404C01F
:1009D000843029F4923081F484E690E0C6C09230ED
:1009E00049F420E09A858A89981321E02A87CE016C
:1009F0000996BBC0823049F420E09A858A89981311
:100A000021E02A8BCE014196B0C02D843E844F84D4
:100A100058886D887E888F88988CEE24FF24870103
:100A2000AA24BB24650140E050E060E070E0E0E013
:100A3000F0E0C10181709070892BE9F0E60CF71CA1
:100A4000081D191D9A01AB012A0D3B1D4C1D5D1D92
:100A500080E090E0A0E0B0E0E614F7040805190596
:100A600020F481E090E0A0E0B0E0BA01A901480FD5
:100A7000591F6A1F7B1FAA0CBB1CCC1CDD1C97FED8
:100A800008C081E090E0A0E0B0E0A82AB92ACA2A14
:100A9000DB2A3196E032F10549F0660C771C881CA0
:100AA000991C5694479437942794C3CFFA85EA89C2
:100AB0002B893C898B859C85280F391F2E5F3F4FE2
:100AC00017C0CA0181709070892B61F01695079547
:100AD000F794E79480E090E0A0E0B0E8E82AF92AF3
:100AE0000A2B1B2B76956795579547952F5F3F4FA0
:100AF00077FDE7CF0CC0440F551F661F771F17FD0A
:100B00004160EE0CFF1C001F111F2150304040308F
:100B100090E0590790E0690790E4790760F32B8F24
:100B20003C8FDB01CA018F779070A070B070803469
:100B30009105A105B10561F447FD0AC0E114F10476
:100B40000105110529F0405C5F4F6F4F7F4F4078E2
:100B50001A8EFE1711F081E08A8F4D8F5E8F6F8F96
:100B600078A383E0898FCE014996CFD1A096E2E1A8
:100B700021C4A8E1B0E0EEEBF5E008C469837A8314
:100B80008B839C832D833E834F835887B9E0EB2E64
:100B9000F12CEC0EFD1ECE010196B7018BD28E0119
:100BA0000F5E1F4FCE010596B80184D229852230F1
:100BB00008F47EC03989323010F4B8017CC08A85CF
:100BC0009A8989278A87243011F0223031F423173B
:100BD00009F06EC064E670E06EC0343039F41D86F2
:100BE0001E861F86188A1C861B8604C0323021F49C
:100BF00084E08987B7015FC02B853C858B899C8900
:100C0000281B390B3C872B87ED84FE840F851889C0
:100C1000AD88BE88CF88D88CEA14FB040C051D056E
:100C200040F4EE0CFF1C001F111F215030403C8788
:100C30002B8720E030E040E050E080E090E0A0E052
:100C4000B0E460E070E0EA14FB040C051D0540F020
:100C5000282B392B4A2B5B2BEA18FB080C091D09A2
:100C6000B695A79597958795EE0CFF1C001F111F51
:100C70006F5F7F4F6F31710531F7DA01C9018F77EF
:100C80009070A070B07080349105A105B10561F439
:100C900027FD0AC0E114F1040105110529F0205CCB
:100CA0003F4F4F4F5F4F20782D873E874F87588BA0
:100CB000BE01675F7F4FCB0128D16896EAE082C30F
:100CC000A8E1B0E0E5E6F6E065C369837A838B834B
:100CD0009C832D833E834F83588789E0E82EF12C37
:100CE000EC0EFD1ECE010196B701E4D18E010F5E20
:100CF0001F4FCE010596B801DDD18985823038F0CD
:100D00008989823020F0C701B8014CD201C08FEF31
:100D10006896E6E05BC3A8E0B0E0E0E9F6E037C340
:100D20009B01AC0183E08983DA01C9018827B7FD03
:100D300083959927AA27BB27B82E21153105410590
:100D4000510519F482E0898339C08823A9F0203045
:100D500080E0380780E0480780E8580729F460E021
:100D600070E080E09FEC2EC0EE24FF248701E21AA1
:100D7000F30A040B150B02C079018A018EE1C82E1B
:100D8000D12CDC82CB82ED82FE820F831887C801D2
:100D9000B7016CD001971816190684F4082E04C008
:100DA000EE0CFF1C001F111F0A94D2F7ED82FE8289
:100DB0000F831887C81AD90ADC82CB82BA82CE0187
:100DC0000196A3D02896E9E0FEC2ACE0B0E0EAEEDE
:100DD000F6E0E4C269837A838B839C83CE0101961B
:100DE000BE016B5F7F4F66D18D81823061F18230B1
:100DF00050F1843021F48E81882351F12EC02F814F
:100E0000388537FD20C06E812F3131051CF06623F7
:100E1000F9F023C08EE190E0821B930B29853A857F
:100E20004B855C8504C056954795379527958A95DF
:100E3000D2F76623B1F050954095309521953F4FFC
:100E40004F4F5F4F0EC020E030E040E050E009C05F
:100E50002FEF3FEF4FEF5FE704C020E030E040E0CE
:100E600050E8B901CA012C96E2E0B4C2EF92FF92B9
:100E70000F931F937B018C0180E0E81680E0F80659
:100E800081E0080780E0180788F48FEFE816F10486
:100E90000105110531F028F088E090E0A0E0B0E015
:100EA00017C080E090E0A0E0B0E012C080E0E8165B
:100EB00080E0F80680E0080781E0180728F088E164
:100EC00090E0A0E0B0E004C080E190E0A0E0B0E0FD
:100ED00020E230E040E050E0281B390B4A0B5B0B6E
:100EE00004C016950795F794E7948A95D2F7F70111
:100EF000E459FF4F8081281B310941095109C9017B
:100F00001F910F91FF90EF900895DF92EF92FF9263
:100F10000F931F93FC01E480F58006811781D18037
:100F20008081823048F480E090E0A0E1B0E0E82ADF
:100F3000F92A0A2B1B2BA5C0843009F49FC08230EC
:100F400021F4EE24FF24870105C0E114F10401051A
:100F5000110519F4E0E0F0E096C0628173819FEF23
:100F6000623879070CF05BC022E83FEF261B370B95
:100F70002A3131052CF020E030E040E050E02AC07A
:100F8000B801A701022E04C076956795579547953D
:100F90000A94D2F781E090E0A0E0B0E004C0880FAE
:100FA000991FAA1FBB1F2A95D2F70197A109B10962
:100FB0008E219F21A023B1230097A105B10521F027
:100FC00081E090E0A0E0B0E09A01AB01282B392B42
:100FD0004A2B5B2BDA01C9018F779070A070B0703B
:100FE00080349105A105B10539F427FF09C0205CC3
:100FF0003F4F4F4F5F4F04C0215C3F4F4F4F5F4FFC
:10100000E0E0F0E02030A0E03A07A0E04A07A0E4EA
:101010005A0710F0E1E0F0E079018A0127C060385A
:10102000710564F5FB01E158FF4FD801C7018F77C7
:101030009070A070B07080349105A105B10539F4AD
:10104000E7FE0DC080E490E0A0E0B0E004C08FE3D4
:1010500090E0A0E0B0E0E80EF91E0A1F1B1F17FF8A
:1010600005C016950795F794E794319687E0169595
:101070000795F794E7948A95D1F705C0EE24FF24ED
:101080008701EFEFF0E06E2F679566276795902F49
:101090009F77D794DD24D7948E2F8695492F462BA2
:1010A000582F5D29B701CA011F910F91FF90EF9052
:1010B000DF900895FC01DB01408151812281622F84
:1010C0006F7770E0221F2227221F9381892F880FBC
:1010D000822B282F30E0991F9927991F11969C93F6
:1010E000119721153105A9F54115510561057105C6
:1010F00011F482E037C082E89FEF13969C938E93A1
:1011000012979A01AB0167E0220F331F441F551F4E
:101110006A95D1F783E08C930DC0220F331F441FD3
:10112000551F12968D919C911397019713969C933E
:101130008E931297203080E0380780E0480780E4E3
:10114000580758F314962D933D934D935C9317973E
:1011500008952F3F310579F4411551056105710559
:1011600019F484E08C93089564FF03C081E08C93AC
:1011700012C01C9210C02F57304013963C932E93F0
:10118000129783E08C9387E0440F551F661F771FEB
:101190008A95D1F7706414964D935D936D937C930B
:1011A000179708951F93DC01FB019C91923008F47E
:1011B00047C08081823008F443C0943051F41196C6
:1011C0001C91843099F58181682F70E0611B710951
:1011D0003FC0843021F0923031F48230B9F1818106
:1011E000882389F12DC011961C9111978230F1F05E
:1011F00081811817D9F412962D913C911397828111
:1012000093818217930794F028173907BCF014963E
:101210008D919D910D90BC91A02D248135814681A9
:101220005781281739074A075B0718F4112341F043
:101230000AC082179307A407B50740F4112319F0D9
:1012400061E070E005C06FEF7FEF02C060E070E02A
:10125000CB011F910895FB019F01E8944230BCF03F
:101260004532ACF44A3029F497FB1EF490958195F1
:101270009F4F642F77274CD0805D8A330CF0895DB7
:101280008193CB010097A9F716F45DE25193108288
:10129000C90100C0DC01FC01672F71917723E1F7E0
:1012A000329704C07C916D9370836291AE17BF0733
:1012B000C8F3089597FB092E07260AD077FD04D0BE
:1012C00027D006D000201AF4709561957F4F0895BD
:1012D000F6F7909581959F4F089597FB092E052667
:1012E0000ED057FD04D028D00AD0001C38F45095F9
:1012F0004095309521953F4F4F4F5F4F0895F6F73A
:1013000090958095709561957F4F8F4F9F4F089571
:10131000AA1BBB1B51E107C0AA1FBB1FA617B7071B
:1013200010F0A61BB70B881F991F5A95A9F7809537
:101330009095BC01CD010895A1E21A2EAA1BBB1BFA
:10134000FD010DC0AA1FBB1FEE1FFF1FA217B30791
:10135000E407F50720F0A21BB30BE40BF50B661FA7
:10136000771F881F991F1A9469F76095709580956B
:1013700090959B01AC01BD01CF0108952F923F9242
:101380004F925F926F927F928F929F92AF92BF9295
:10139000CF92DF92EF92FF920F931F93CF93DF9341
:1013A000CDB7DEB7CA1BDB0B0FB6F894DEBF0FBE9E
:1013B000CDBF09942A88398848885F846E847D84EB
:1013C0008C849B84AA84B984C884DF80EE80FD80ED
:1013D0000C811B81AA81B981CE0FD11D0FB6F89463
:0E13E000DEBF0FBECDBFED010895F894FFCF24
:1013EE003A0043000000000000000000000102026D
:1013FE00030303030404040404040404050505059F
:10140E00050505050505050505050505060606067A
:10141E00060606060606060606060606060606065E
:10142E00060606060606060606060606070707074A
:10143E00070707070707070707070707070707072E
:10144E00070707070707070707070707070707071E
:10145E00070707070707070707070707070707070E
:10146E0007070707070707070707070708080808FA
:10147E0008080808080808080808080808080808DE
:10148E0008080808080808080808080808080808CE
:10149E0008080808080808080808080808080808BE
:1014AE0008080808080808080808080808080808AE
:1014BE00080808080808080808080808080808089E
:1014CE00080808080808080808080808080808088E
:1014DE00080808080808080808080808080808087E
:0C14EE0008080808080808080808080892
:00000001FF
