:1000000012C0DCC031C02AC040C028C027C026C0F2
:1000100025C024C023C022C021C020C01FC01EC0D4
:100020001DC01CC01BC011241FBECFE5D4E0DEBF25
:10003000CDBF12E0A0E6B0E0EAEBF2E002C005902E
:100040000D92AE33B107D9F712E0AEE3B2E001C0D2
:100050001D92A834B107E1F7F6D02DC1D1CF8AE0C7
:1000600085BF80EC8BBF08951F920F920FB60F9241
:1000700011240F900FBE0F901F90189588E082BD3D
:1000800085E085BD80E489BF08951F920F920FB669
:100090000F9211248F9380913E028F5F80933E02D6
:1000A0008F910F900FBE0F901F901895982F80FF83
:1000B00002C0949A01C0949891FF02C0AD9A01C009
:1000C000AD9892FF02C0AC9A01C0AC9893FF02C0F9
:1000D000AB9A01C0AB9894FF02C0AA9A01C0AA983B
:1000E00095FF02C0A99A01C0A99896FF02C0A89ADC
:1000F00001C0A89887FF02C0C59A0895C5980895C1
:10010000982F80FF02C0C49A01C0C49891FF02C01A
:10011000C39A01C0C39892FF02C0C29A01C0C2989C
:1001200093FF02C0C19A01C0C19894FF02C0C09A57
:1001300001C0C09895FF02C0979A01C0979896FF9A
:1001400002C0969A01C0969887FF02C0959A0895BA
:1001500095980895EF92FF920F931F93CF93DF939B
:10016000282F30E020523040E901CC0FDD1FCC0FAA
:10017000DD1FC20FD31FC05ADF4F9CE2E92E91E072
:10018000F92E95E0899F800111240B53104089912D
:1001900090E0B6DFC7010197F1F7C017D107B9F7B3
:1001A00080E090E0ADDF8CE291E00197F1F7DF9124
:1001B000CF911F910F91FF90EF9008951F920F9292
:1001C0000FB60F9211242F933F934F935F936F932A
:1001D0007F938F939F93AF93BF93EF93FF938BE4A2
:1001E000B9DF85E4B7DF82E5B5DF84E5B3DF85E419
:1001F000B1DF83E5AFDF8AE5ADDF80E2ABDF83E52A
:10020000A9DF81E4A7DF8EE4A5DF84E4A3DF8FE428
:10021000A1DF82E59FDF80E29DDF81E29BDF80E05E
:1002200090E06EDFFF91EF91BF91AF919F918F9121
:100230007F916F915F914F913F912F910F900FBEE2
:100240000F901F9018958FEF84BB8FE387BB80EFD3
:1002500081BB8AE085BF80EC8BBF88E082BD85E0F2
:1002600085BD80E489BF789480E84ADF88E893E11F
:1002700028EC30E0F9013197F1F70197D9F788E8D8
:1002800093E128EC30E0F9013197F1F70197D9F7C4
:1002900088E893E128EC30E0F9013197F1F7019714
:1002A000D9F788E893E128EC30E0F9013197F1F7CC
:0A02B0000197D9F7FFCFF894FFCFB4
:1002BA00000000000000006F0000000700070014A3
:1002CA007F147F140007041E002313086462364952
:1002DA005620500000070000001C22410000412265
:1002EA001C0014083E081408083E08080050300094
:1002FA0000080808080800606000002010080402CE
:10030A003E5149453E00427F4000426151494621E3
:10031A0041454B311814127F1027454545393C4A4F
:10032A00494930017109050336494949360649499F
:10033A00291E0036360000005636000008142241F5
:10034A00001414141414004122140802015109065D
:10035A003E415D494E7E0909097E7F494949363E3B
:10036A00414141227F4141413E7F494949417F09FB
:10037A000909013E4149497A7F0808087F00417FFF
:10038A0041002040413F017F081422417F40404004
:10039A00407F020C027F7F0408107F3E4141413EAC
:1003AA007F090909063E4151215E7F0919294646FE
:1003BA004949493101017F01013F4040403F0F3027
:1003CA0040300F3F4030403F631408146307087001
:1003DA00080761514945433C4A49291E020408104D
:1003EA002000417F000004020102044040404040D6
:1003FA00000003040020545454787F484444383899
:10040A0044444420384444487F3854545418087E9D
:10041A000901020C5252523E7F0804047800447DBE
:10042A0040002040443D00007F10284400417F40A6
:10043A00007C041804787C0804047838444444385E
:10044A007C14141408081414187C7C080404084842
:10045A0054545420043F4440203C4040207C1C20FB
:10046A0040201C3C4030403C44281028440C50504A
:10047A00503C4464544C44000836414100007F001B
:0E048A00004141360800040204080405000089
:00000001FF
