:100000000C9446000C9466000C9466000C946600F8
:100010000C9466000C9466000C9466000C946600C8
:100020000C9466000C9466000C9466000C946600B8
:100030000C9494060C9466000C9466000C94660074
:100040000C9466000C94D6030C9466000C94660025
:100050000C9466000C9466000C9466000C94660088
:100060000C9466000C9466000C9466000C94660078
:100070000C9466000C9466000C945D030C9466006E
:100080000C9466000C9466000C94660011241FBE4C
:10009000CFEFD0E1DEBFCDBF12E0A0E0B1E0EEEBEC
:1000A000F0E200E00BBF02C007900D92AC31B10747
:1000B000D9F71BBE13E0ACE1B2E001C01D92A63D32
:1000C000B107E1F70E9403030C945D100C9400004B
:1000D0000F931F93162F042FD89860E070E00E94B2
:1000E0003304812F60E070E00E943304802F60E0D1
:1000F00070E00E943304D89A1F910F9108959F9247
:10010000AF92BF92CF92DF92EF92FF920F931F9325
:10011000CF93DF937B018C01413009F4AFC04130B4
:1001200020F0423009F0A6C139C120E030EC49E7A7
:1001300054E40E94800A18160CF49CC1C801B7014F
:1001400020E030E046EC52EC0E94E00A87FD92C1CC
:10015000C801B70120E030E040E050E00E94800A92
:1001600018161CF03BE0932E2DC0C801B70120E00B
:1001700030E048EC52E40E94D4095B016C0120E0BD
:1001800030E040E050E00E94800A18161CF4C601DE
:10019000B50108C0C801B70120E030E048EC52ECDE
:1001A0000E94D40920E030E040E85FE30E94B00AFA
:1001B00087FF03C02AE0922E05C0C601B5010E9448
:1001C0000407962EC801B70120E030E040E251E478
:1001D0000E94D4095B016C0120E030E040E050E077
:1001E0000E94800A18161CF4C601B50108C0C80197
:1001F000B70120E030E040E251EC0E94D40920E059
:1002000030E040E85FE30E94B00A87FF02C06AE086
:1002100014C0C801B7010E946E0BDC01CB0164E67B
:1002200070E00E94530F8A3091051CF06AE070E084
:1002300002C066EF7FEF0E94530FC92CDD2480E0DF
:1002400091E0C80ED91EC62FD0E0C80FD91FC80133
:10025000B7010E946E0BDC01CB016AE070E00E94E6
:10026000530F97FF03C0909581959F4FE82FF0E0C3
:10027000E050FF4FD6018C9168818BC020E030E0C8
:1002800048EC52E40E94B00A87FFF4C0C801B701ED
:1002900020E030E040E151EC0E94E00A87FDEAC036
:1002A000C801B70120E030E040E050E00E94800A41
:1002B000181664F5C801B70120E030E040E251E4CF
:1002C0000E94D4095B016C0120E030E040E050E086
:1002D0000E94800A18161CF4C601B50108C0C801A6
:1002E000B70120E030E040E251EC0E94D40920E068
:1002F00030E040E85FE30E94B00A88230CF4C7C0F6
:10030000C601B5010E940407D62E14C0C801B7016A
:1003100020E030E040E251EC0E94DA080E946E0BCF
:10032000DC01CB016AE070E00E94530FC82E9BE015
:10033000D92E11C0C801B70120E030E040E251E4FD
:100340000E94DA080E946E0BDC01CB016AE070E0CB
:100350000E94530FC82ECD2DD0E0C050DF4FC801F2
:10036000B7010E946E0BDC01CB016AE070E00E94D5
:10037000530F97FF03C0909581959F4FE82FF0E0B2
:10038000E050FF4F6081677FEC2DF0E0E050FF4FC1
:10039000888140810E94680080E06DC020E030E0EC
:1003A00040E251E40E94B00A87FF64C0C801B7016F
:1003B00020E030E040E050E00E94E00A87FD5AC0B3
:1003C000C801B70120E030E040E050E00E94800A20
:1003D0001816C4F4C801B70120E030E040E251E44F
:1003E0000E94DA080E946E0BDC01CB016AE070E02B
:1003F0000E94530FC82EC801B70120E030E048EC3E
:1004000052E417C0C801B70120E030E040E251ECEF
:100410000E94DA080E946E0BDC01CB016AE070E0FA
:100420000E94530FC82EC801B70120E030E048EC0D
:1004300052EC0E94DA080E946E0BDC01CB016AE0EC
:1004400070E00E94530FD82EC801B7010E94040724
:10045000DC01CB0190E080509F4FFC018081AC2DEE
:10046000B0E0A050BF4FED2DF0E0E050FF4F877F90
:100470006C918FCF81E0DF91CF911F910F91FF9011
:10048000EF90DF90CF90BF90AF909F9008958AE05B
:10049000D82E50CF8FEF6FEF4FEF0E946800089576
:1004A0001F9370E09B01220F331F220F331F660F33
:1004B000771F162F122B8864182B812F0E949A0405
:1004C0008130D1F081E00E949E048130A9F080E665
:1004D0000E949E04813081F00E94D304812F0E94EB
:1004E0009A04813049F080E00E949E04813021F01E
:1004F0000E94D30480E001C081E01F910895EF9233
:10050000FF920F931F93DF93CF9300D0CDB7DEB749
:100510007C0150E0CA01880F991F880F991F440F72
:10052000551F142F182B6864162B812F0E949A04D4
:10053000813009F43FC080E00E949E048130D1F1F7
:100540000E94D304812F0E94B404813099F18E015E
:100550000F5F1F4FC801019660E00E94B804813010
:1005600049F1C80161E00E94B804813019F10E948C
:10057000D30489819A819C0164E0359527956A9519
:10058000E1F797FD306F3A83298369817A81882763
:1005900077FD8095982F0E94100B20E030E040E816
:1005A0005DE30E94DA08F70160837183828393839D
:1005B00080E001C081E00F900F90CF91DF911F91FB
:1005C0000F91FF90EF900895D09AD89AD198D29831
:1005D000D398D49AD59AD69AD79AA098A198A29847
:1005E000A39880E060E040E024E00E94010482E300
:1005F00090E00E9441040E944A0281E061E041E0F3
:100600000E9450020895CF93DF930E94E4020E945B
:10061000220581E061E041E00E9450028F9A979AA2
:1006200078941092BE03DC9A1092BF031092C90313
:100630001092C803C1E0D0E089B32091C803309183
:10064000C90381FD13C0232B89F48091BE038F5F02
:100650008093BE038091BE03843011F41092BE03D8
:100660000E94C106D093C903C093C803C99B0FC0A1
:100670008091C8039091C903892B49F08091C803E8
:100680009091C90301969093C9038093C803809108
:10069000C8039091C903805D974021F41092C9036B
:1006A0001092C8038091BF03853031F60E942E0559
:1006B0000E94C1061092BF03BFCF1F920F920FB6C8
:1006C0000F920BB60F9211242F933F934F935F938A
:1006D0006F937F938F939F93AF93BF93EF93FF930A
:1006E000E0911E02F0911F020995FF91EF91BF91D9
:1006F000AF919F918F917F916F915F914F913F91BA
:100700002F910F900BBE0F900FBE0F901F9018955A
:10071000982F80919B0085FD04C080911D02882345
:10072000C1F390939C0080E090E00895982F809111
:100730009B0085FD04C080911D028823C1F3909326
:100740009C0080E090E0089580919B0087FD04C0AC
:1007500080911D028823C1F380919C0008958091AF
:100760009B0087FD04C080911D028823C1F39091F6
:100770009C00292F30E02D30310561F480919B00E1
:1007800085FD04C080911D028823C1F390939C00D5
:100790002AE030E080919B0085FD04C080911D021D
:1007A0008823C1F320939C00C90108951F920F92E2
:1007B0000FB60F920BB60F9211242F933F934F93C6
:1007C0005F936F937F938F939F93AF93BF93EF93B9
:1007D000FF93E0912002F09121020995FF91EF91A2
:1007E000BF91AF919F918F917F916F915F914F9149
:1007F0003F912F910F900BBE0F900FBE0F901F9047
:10080000189597B3976097BBBB98880F880F880F90
:100810008065660F660F682B4295440F407E462B1D
:100820004DB9822F8350823010F0273009F4689A36
:10083000253008F0699A213021F0233011F025305D
:1008400009F4709A08959C01BB9A87B3887F87BB8F
:1008500080E48DB92115310529F0309321022093D0
:1008600020026F9A0895FB018FB9779904C0809197
:100870001D028823D1F3309711F08FB1808380E07F
:100880000895109271009C01442737FD4095542F24
:1008900060E47FE180E090E00E94660FDA01C90128
:1008A000409762E070E00E94530F6093700084E014
:1008B000809374000895982F990F6111916020E042
:1008C00030E054EA44E82DC05093740080917400E5
:1008D00087FD04C080911D028823C1F380917100BF
:1008E000887F883011F08031B1F490937300409389
:1008F00074008091740087FD04C080911D028823DC
:10090000C1F380917100887F662319F4883119F44E
:100910000DC0803459F02F5F3F4F83E0283E3807E9
:1009200039F080911D02882379F202C080E0089599
:1009300081E0089560E00E945B0408958093730055
:1009400084E8809374008091740087FD04C08091D6
:100950001D028823C1F38091710090E0887F883266
:1009600009F091E0892F089561E00E945B040895E9
:10097000FC01662311F084E801C084EC80937400CC
:100980008091740087FD04C080911D028823C1F30B
:1009900080911D02882311F081E0089580917300F9
:1009A000808380E0089584E98093740008950F9314
:1009B0001F93CF93DF938B019C01EA01F89484E0AD
:1009C000000F111F221F331F8A95D1F760E072E1DB
:1009D0008AE790E0A90198010E94660F21503040FB
:1009E0003F70309398002093990086E080939D009B
:1009F00088E180939A00209749F080919A0080685E
:100A000080939A00D0931F02C0931E028091CA0364
:100A10009091CB03009731F00E94B70D1092CB0359
:100A20001092CA0386E993E06FEA73E00E94E20D38
:100A30009093CB038093CA037894DF91CF911F9159
:100A40000F9108951FBC8CE08EBD1DBC1CBC80E1C5
:100A500087BF8AE698E19BBD8ABD08952F923F9299
:100A60004F925F926F927F928F929F92AF92BF92BE
:100A7000CF92DF92EF92FF920F931F93CF93DF936A
:100A800080912A0290912B02A0912C02B0912D020C
:100A90008093220290932302A0932402B093250214
:100AA0008091220290912302A0912402B09125020C
:100AB0008093BA039093BB03A093BC03B093BD0390
:100AC00080E090E0A0E0B0E08093C0039093C10389
:100AD000A093C203B093C30380932602909327028E
:100AE000A0932802B093290200E010E06091BA03BD
:100AF0007091BB038091BC039091BD03E801CC0FC2
:100B0000DD1FCC0FDD1FC65DDD4F288139814A8195
:100B10005B810E94800A181664F488819981AA81F9
:100B2000BB818093BA039093BB03A093BC03B093A3
:100B3000BD03609122027091230280912402909162
:100B40002502E801CC0FDD1FCC0FDD1FC65DDD4F98
:100B5000288139814A815B810E94E00A882364F4FC
:100B600088819981AA81BB8180932202909323027C
:100B7000A0932402B09325026091C0037091C10339
:100B80008091C2039091C303F801EE0FFF1FEE0F97
:100B9000FF1FE65DFD4F20813181428153810E941C
:100BA000AD086093C0037093C1038093C203909318
:100BB000C3030F5F1F4F0436110509F097CF6091F3
:100BC000C0037091C1038091C2039091C30320E0E0
:100BD00030E048EC52E40E94D4096093C003709363
:100BE000C1038093C2039093C303C0E0D0E0209080
:100BF0002602309027024090280250902902FE01E0
:100C0000EE0FFF1FEE0FFF1FE65DFD4F608171814C
:100C1000828193812091C0033091C1034091C2032E
:100C20005091C303A080B180C280D3806090C00384
:100C30007090C1038090C2039090C3030E947C080F
:100C40007B018C01C601B501A40193010E947C08BF
:100C50009B01AC01C801B7010E94DA089B01AC01FD
:100C6000C201B1010E94AD08609326027093270271
:100C700080932802909329022196C436D10509F069
:100C8000B6CF609126027091270280912802909140
:100C9000290220E030E048EC52E40E94D4090E948E
:100CA000D70F6093260270932702809328029093B7
:100CB0002902DF91CF911F910F91FF90EF90DF906C
:100CC000CF90BF90AF909F908F907F906F905F90EC
:100CD0004F903F902F90089584EC93E061E041E0C5
:100CE00021E00E947F02E0911C02F0E08091C403A9
:100CF0009091C503A091C603B091C703EE0FFF1FEB
:100D0000EE0FFF1FE65DFD4F80839183A283B383C7
:100D100080911C028F5F80931C0280911C0284369C
:100D200011F410921C0208951F920F920FB60F92A9
:100D30000BB60F9211242F933F934F935F936F93B2
:100D40007F938F939F93AF93BF93EF93FF93809184
:100D5000BF038F5F8093BF030E946C06FF91EF91EA
:100D6000BF91AF919F918F917F916F915F914F91C3
:100D70003F912F910F900BBE0F900FBE0F901F90C1
:100D800018958091BE038130A9F0813028F082301F
:100D9000F9F08330C1F52AC06091BA037091BB03AA
:100DA0008091BC039091BD0341E00E947F00DF98D9
:100DB000DC9A0895609122027091230280912402AE
:100DC0009091250241E00E947F00DC98DD9A089511
:100DD0006091C0037091C1038091C2039091C303DD
:100DE00041E00E947F00DD98DE9A0895609126021E
:100DF00070912702809128029091290241E00E947F
:100E00007F00DE98DF9A0895EF92FF920F931F9371
:100E10007B018C0120E030E040E05FE40E94B00AFA
:100E200088238CF0C801B70120E030E040E05FE4A7
:100E30000E947C080E946E0B9B01AC012050304048
:100E40004040504806C0C801B7010E946E0B9B018C
:100E5000AC01B901CA011F910F91FF90EF90089565
:100E6000A0E0B0E0E6E3F7E00C949C0FDC012B017E
:100E7000FA019C91923008F439C1EB0188818230EB
:100E800008F433C1943069F4843009F02FC111960D
:100E90009C9111978981981709F428C1ADE0B1E0C0
:100EA00025C1843009F421C18230A9F4923009F0BF
:100EB0001DC19A01AD0188E0EA010990AE01E90186
:100EC00009929E018150C1F7E201898111969C919E
:100ED0008923818308C1923009F407C112962D90AD
:100EE0003C901397EB018A819B811496AD90BD9045
:100EF000CD90DC901797EC80FD800E811F819101D1
:100F0000281B390BB90137FF04C066277727621BFE
:100F1000730B603271050CF061C0121613066CF58C
:100F200037014801062E04C09694879477946794FD
:100F30000A94D2F721E030E040E050E004C0220FF4
:100F4000331F441F551F6A95D2F72150304040404F
:100F500050402E213F2140235123211531054105C9
:100F6000510521F021E030E040E050E079018A01B4
:100F7000E628F728082919293CC0232BD1F1260E91
:100F8000371E35014601062E04C096948794779447
:100F900067940A94D2F721E030E040E050E004C0CA
:100FA000220F331F441F551F6A95D2F7215030403E
:100FB000404050402A213B214C215D212115310523
:100FC0004105510521F021E030E040E050E05901B9
:100FD0006A01A628B728C828D9280BC0821593050E
:100FE0002CF01C01AA24BB24650103C0EE24FF24BD
:100FF000870111969C91D20111968C91981709F452
:1010000045C0992339F0A80197012A193B094C09D9
:101010005D0906C0A60195012E193F09400B510B31
:1010200057FD08C011823382228224833583468390
:1010300057831DC081E081833382228288279927CC
:10104000DC01821B930BA40BB50B84839583A683D1
:10105000B7830DC0220F331F441F551F24833583D0
:10106000468357838281938101979383828324816E
:10107000358146815781DA01C9010197A109B1097A
:101080008F5F9F4FAF4FBF4328F30BC091833382D5
:101090002282EA0CFB1C0C1D1D1DE482F5820683D6
:1010A000178383E08083248135814681578157FFF0
:1010B0001AC0C901AA2797FDA095BA2F8170907018
:1010C000A070B0705695479537952795822B932B36
:1010D000A42BB52B84839583A683B78382819381C8
:1010E000019693838283DF0101C0D201CD01CDB788
:1010F000DEB7E2E10C94B80FA0E2B0E0E2E8F8E07D
:101100000C94A80F69837A838B839C832D833E8301
:101110004F835887E9E0EE2EF12CEC0EFD1ECE0138
:101120000196B7010E94E60C8E010F5E1F4FCE01A3
:101130000596B8010E94E60C8A8991E089278A8B7E
:10114000C701B801AE01475E5F4F0E9430070E94A1
:10115000110CA096E6E00C94C40FA0E2B0E0E3EB23
:10116000F8E00C94A80F69837A838B839C832D838A
:101170003E834F835887F9E0EF2EF12CEC0EFD1ED5
:10118000CE010196B7010E94E60C8E010F5E1F4F43
:10119000CE010596B8010E94E60CC701B801AE0168
:1011A000475E5F4F0E9430070E94110CA096E6E058
:1011B0000C94C40FA0E2B0E0E0EEF8E00C949C0FB9
:1011C00069837A838B839C832D833E834F835887E7
:1011D000CE010196BE01675F7F4F0E94E60CCE01F3
:1011E0000596BE016F5E7F4F0E94E60C9985923096
:1011F00088F089898230C8F0943019F4823051F433
:1012000004C0843029F4923081F48DE091E0C6C0AE
:10121000923049F420E09A858A89981321E02A8740
:10122000CE010996BBC0823049F420E09A858A89B4
:10123000981321E02A8BCE014196B0C02D843E84C4
:101240004F8458886D887E888F88988CEE24FF2480
:101250008701AA24BB24650140E050E060E070E013
:10126000E0E0F0E0C10181709070892BE9F0E60CBC
:10127000F71C081D191D9A01AB012A0D3B1D4C1DC1
:101280005D1D80E090E0A0E0B0E0E614F704080502
:10129000190520F481E090E0A0E0B0E0BA01A901D6
:1012A000480F591F6A1F7B1FAA0CBB1CCC1CDD1CDE
:1012B00097FE08C081E090E0A0E0B0E0A82AB92A3B
:1012C000CA2ADB2A3196E032F10549F0660C771C18
:1012D000881C991C5694479437942794C3CFFA8559
:1012E000EA892B893C898B859C85280F391F2E5FC5
:1012F0003F4F17C0CA0181709070892B61F016951D
:101300000795F794E79480E090E0A0E0B0E8E82A41
:10131000F92A0A2B1B2B76956795579547952F5FD2
:101320003F4F77FDE7CF0CC0440F551F661F771F57
:1013300017FD4160EE0CFF1C001F111F21503040B3
:10134000403090E0590790E0690790E4790760F336
:101350002B8F3C8FDB01CA018F779070A070B0702B
:1013600080349105A105B10561F447FD0AC0E1147F
:10137000F1040105110529F0405C5F4F6F4F7F4F6D
:1013800040781A8EFE1711F081E08A8F4D8F5E8FA4
:101390006F8F78A383E0898FCE0149960E94110C4C
:1013A000A096E2E10C94B80FA8E1B0E0EAEDF9E014
:1013B0000C94A40F69837A838B839C832D833E8353
:1013C0004F835887B9E0EB2EF12CEC0EFD1ECE01B9
:1013D0000196B7010E94E60C8E010F5E1F4FCE01F1
:1013E0000596B8010E94E60C2985223008F47EC0DB
:1013F0003989323010F4B8017CC08A859A898927EE
:101400008A87243011F0223031F4231709F06EC09E
:101410006DE071E06EC0343039F41D861E861F8683
:10142000188A1C861B8604C0323021F484E0898728
:10143000B7015FC02B853C858B899C89281B390BA4
:101440003C872B87ED84FE840F851889AD88BE8884
:10145000CF88D88CEA14FB040C051D0540F4EE0C73
:10146000FF1C001F111F215030403C872B8720E0BC
:1014700030E040E050E080E090E0A0E0B0E460E0E8
:1014800070E0EA14FB040C051D0540F0282B392BF5
:101490004A2B5B2BEA18FB080C091D09B695A7958A
:1014A00097958795EE0CFF1C001F111F6F5F7F4FF4
:1014B0006F31710531F7DA01C9018F779070A07033
:1014C000B07080349105A105B10561F427FD0AC013
:1014D000E114F1040105110529F0205C3F4F4F4F45
:1014E0005F4F20782D873E874F87588BBE01675FFF
:1014F0007F4FCB010E94110C6896EAE00C94C00F5C
:10150000A8E1B0E0E6E8FAE00C94A80F69837A83DA
:101510008B839C832D833E834F83588789E0E82EFD
:10152000F12CEC0EFD1ECE010196B7010E94E60CD7
:101530008E010F5E1F4FCE010596B8010E94E60C8A
:101540008985823040F08989823028F0C701B8014E
:101550000E945E0D01C08FEF6896E6E00C94C40F08
:10156000A8E1B0E0E6EBFAE00C94A80F69837A8377
:101570008B839C832D833E834F83588789E0E82E9D
:10158000F12CEC0EFD1ECE010196B7010E94E60C77
:101590008E010F5E1F4FCE010596B8010E94E60C2A
:1015A0008985823040F08989823028F0C701B801EE
:1015B0000E945E0D01C08FEF6896E6E00C94C40FA8
:1015C000A8E1B0E0E6EEFAE00C94A80F69837A8314
:1015D0008B839C832D833E834F83588789E0E82E3D
:1015E000F12CEC0EFD1ECE010196B7010E94E60C17
:1015F0008E010F5E1F4FCE010596B8010E94E60CCA
:101600008985823040F08989823028F0C701B8018D
:101610000E945E0D01C081E06896E6E00C94C40F64
:10162000A8E0B0E0E6E1FBE00C94A50F9B01AC0163
:1016300083E08983DA01C9018827B7FD839599275B
:10164000AA27BB27B82E211531054105510519F4EC
:1016500082E089833AC08823A9F0203080E03807EF
:1016600080E0480780E8580729F460E070E080E0F7
:101670009FEC30C0EE24FF248701E21AF30A040B2A
:10168000150B02C079018A018EE1C82ED12CDC82B3
:10169000CB82ED82FE820F831887C801B7010E94BA
:1016A000C20B01971816190684F4082E04C0EE0C1C
:1016B000FF1C001F111F0A94D2F7ED82FE820F83D8
:1016C0001887C81AD90ADC82CB82BA82CE01019669
:1016D0000E94110C2896E9E00C94C10FACE0B0E038
:1016E000E4E7FBE00C94AC0F69837A838B839C83E3
:1016F000CE010196BE016B5F7F4F0E94E60C8D818B
:10170000823061F1823050F1843021F48E8188235F
:1017100051F12EC02F81388537FD20C06E812F31C9
:1017200031051CF06623F9F023C08EE190E0821BA6
:10173000930B29853A854B855C8504C05695479562
:10174000379527958A95D2F76623B1F05095409545
:10175000309521953F4F4F4F5F4F0EC020E030E056
:1017600040E050E009C02FEF3FEF4FEF5FE704C0CC
:1017700020E030E040E050E8B901CA012C96E2E0F8
:101780000C94C80FEF92FF920F931F937B018C0173
:1017900080E0E81680E0F80681E0080780E018079E
:1017A00088F48FEFE816F1040105110531F028F0F7
:1017B00088E090E0A0E0B0E017C080E090E0A0E01A
:1017C000B0E012C080E0E81680E0F80680E008078C
:1017D00081E0180728F088E190E0A0E0B0E004C0C4
:1017E00080E190E0A0E0B0E020E230E040E050E0B6
:1017F000281B390B4A0B5B0B04C016950795F79411
:10180000E7948A95D2F7F701EB5EFE4F8081281BA3
:10181000310941095109C9011F910F91FF90EF90C2
:101820000895DF92EF92FF920F931F93FC01E480E3
:10183000F58006811781D1808081823048F480E074
:1018400090E0A0E1B0E0E82AF92A0A2B1B2BA5C002
:10185000843009F49FC0823021F4EE24FF248701F4
:1018600005C0E114F1040105110519F4E0E0F0E010
:1018700096C0628173819FEF623879070CF05BC07C
:1018800022E83FEF261B370B2A3131052CF020E0F0
:1018900030E040E050E02AC0B801A701022E04C0A9
:1018A00076956795579547950A94D2F781E090E031
:1018B000A0E0B0E004C0880F991FAA1FBB1F2A95A3
:1018C000D2F70197A109B1098E219F21A023B1234D
:1018D0000097A105B10521F081E090E0A0E0B0E023
:1018E0009A01AB01282B392B4A2B5B2BDA01C9015A
:1018F0008F779070A070B07080349105A105B1050C
:1019000039F427FF09C0205C3F4F4F4F5F4F04C0A1
:10191000215C3F4F4F4F5F4FE0E0F0E02030A0E010
:101920003A07A0E04A07A0E45A0710F0E1E0F0E02F
:1019300079018A0127C06038710564F5FB01E1581F
:10194000FF4FD801C7018F779070A070B0708034BE
:101950009105A105B10539F4E7FE0DC080E490E0E2
:10196000A0E0B0E004C08FE390E0A0E0B0E0E80EBB
:10197000F91E0A1F1B1F17FF05C016950795F79440
:10198000E794319687E016950795F794E7948A9542
:10199000D1F705C0EE24FF248701EFEFF0E06E2FB2
:1019A000679566276795902F9F77D794DD24D79406
:1019B0008E2F8695492F462B582F5D29B701CA01D6
:1019C0001F910F91FF90EF90DF900895FC01DB01D4
:1019D000408151812281622F6F7770E0221F222780
:1019E000221F9381892F880F822B282F30E0991F87
:1019F0009927991F11969C93119721153105A9F5E7
:101A0000411551056105710511F482E037C082E886
:101A10009FEF13969C938E9312979A01AB0167E008
:101A2000220F331F441F551F6A95D1F783E08C9313
:101A30000DC0220F331F441F551F12968D919C918C
:101A40001397019713969C938E931297203080E002
:101A5000380780E0480780E4580758F314962D9320
:101A60003D934D935C93179708952F3F310579F47B
:101A7000411551056105710519F484E08C930895B1
:101A800064FF03C081E08C9312C01C9210C02F57DA
:101A9000304013963C932E93129783E08C9387E00B
:101AA000440F551F661F771F8A95D1F770641496EF
:101AB0004D935D936D937C93179708951F93DC016D
:101AC000FB019C91923008F447C08081823008F479
:101AD00043C0943051F411961C91843099F5818162
:101AE000682F70E0611B71093FC0843021F0923093
:101AF00031F48230B9F18181882389F12DC01196AA
:101B00001C9111978230F1F081811817D9F4129647
:101B10002D913C911397828193818217930794F0C2
:101B200028173907BCF014968D919D910D90BC91AA
:101B3000A02D2481358146815781281739074A070E
:101B40005B0718F4112341F00AC082179307A4071A
:101B5000B50740F4112319F061E070E005C06FEFA4
:101B60007FEF02C060E070E0CB011F910895FC019F
:101B7000838187FF24C08091CC039091CD038E1781
:101B80009F0721F41092CD031092CC038091CE03D5
:101B90009091CF038E179F0721F41092CF031092DC
:101BA000CE038091D0039091D1038E179F0721F42B
:101BB0001092D1031092D003CF010E94F40E80E066
:101BC00090E008950F931F93CF93DF938C01EB0167
:101BD000009731F46115710519F420E030E038C048
:101BE00081E090E06EE070E00E942E0EFC019C010E
:101BF000009771F180E88383209771F0D387C287C3
:101C000081E883838091CC039091CD03892B21F4CB
:101C1000F093CD03E093CC0301151105C9F01187B2
:101C200000878381826083838091CE039091CF036C
:101C3000892B71F4F093CF03E093CE038091D0030E
:101C40009091D103892B21F4F093D103E093D00339
:101C5000C901DF91CF911F910F9108950F931F93A9
:101C6000CF93DF93689F8001699F100D789F100DBF
:101C70001124C8010E944A0EEC01009729F060E08F
:101C800070E0A8010E944C0FCE01DF91CF911F910F
:101C90000F910895CF93DF93BC018230910510F42A
:101CA00062E070E0A091D403B091D503ED01E0E0D3
:101CB000F0E040E050E021C08881998186179707C5
:101CC00069F48A819B81309719F09383828304C0E1
:101CD0009093D5038093D403FE0134C0681779072D
:101CE00038F44115510519F08417950708F4AC0133
:101CF000FE018A819B819C01E9012097E9F641154B
:101D00005105A9F1CA01861B970B049708F4BA0183
:101D1000E0E0F0E02AC08D919C911197841795071F
:101D2000F9F46417750781F412968D919C911397BD
:101D3000309719F09383828304C09093D5038093E6
:101D4000D403FD0132964CC0CA01861B970BFD01DE
:101D5000E80FF91F6193719302978D939C9340C094
:101D6000FD01828193819C01D9011097A1F6809198
:101D7000D2039091D303892B41F480911702909163
:101D800018029093D3038093D2034091190250918B
:101D90001A024115510541F44DB75EB78091150205
:101DA00090911602481B590B2091D2033091D30316
:101DB000CA01821B930B8617970780F0AB014E5F19
:101DC0005F4F8417950750F0420F531F5093D30372
:101DD0004093D203F9016193719302C0E0E0F0E017
:101DE000CF01DF91CF910895CF93DF93009709F44E
:101DF00050C0EC0122971B821A82A091D403B091AB
:101E0000D503109709F140E050E0AC17BD0708F189
:101E1000BB83AA83FE0121913191E20FF31FAE171C
:101E2000BF0779F48D919C911197280F391F2E5F70
:101E30003F4F3983288312968D919C9113979B83F2
:101E40008A834115510571F4D093D503C093D4030F
:101E500020C012968D919C911397AD01009711F0BF
:101E6000DC01D3CFFA01D383C28321913191E20FF8
:101E7000F31FCE17DF0769F488819981280F391F76
:101E80002E5F3F4FFA01318320838A819B819383A8
:101E90008283DF91CF910895DC0101C06D934150A1
:101EA0005040E0F7089597FB092E07260AD077FDEA
:101EB00004D02ED006D000201AF4709561957F4F83
:101EC0000895F6F7909581959F4F0895A1E21A2EF7
:101ED000AA1BBB1BFD010DC0AA1FBB1FEE1FFF1FCE
:101EE000A217B307E407F50720F0A21BB30BE40B1E
:101EF000F50B661F771F881F991F1A9469F7609565
:101F00007095809590959B01AC01BD01CF0108951E
:101F1000AA1BBB1B51E107C0AA1FBB1FA617B7070F
:101F200010F0A61BB70B881F991F5A95A9F780952B
:101F30009095BC01CD0108952F923F924F925F92F0
:101F40006F927F928F929F92AF92BF92CF92DF92C9
:101F5000EF92FF920F931F93CF93DF93CDB7DEB72E
:101F6000CA1BDB0B0FB6F894DEBF0FBECDBF0994C2
:101F70002A88398848885F846E847D848C849B8419
:101F8000AA84B984C884DF80EE80FD800C811B8127
:101F9000AA81B981CE0FD11D0FB6F894DEBF0FBE56
:101FA000CDBFED01089511F40EF45BC04AC06BD0B3
:101FB000D0F39923D9F3CEF39F57550B87FF54D015
:101FC00056959795B0E020F4660F771F881FBB1FCA
:101FD0001F930F9300249001A0018001F001A0E85D
:101FE0000E0F1F1F0A1E511D601B710B8009B50BC0
:101FF00048F4600F711F801DB51F0E1B1F0B0A0ACE
:10200000510907C02E0F3F1F4A1F0E0F1F1F0A1E28
:10201000511D660F771F881FBB1FA695F795E79583
:10202000F8F60617170708065B07211D311D411D2D
:102030000F911F91B901842F9158880F969587951C
:1020400008959F3F49F0915028F4869577956795BC
:10205000B7959F5F80389F4F880F9695879597F922
:1020600008959FEF80EC089591505040660F771FC0
:10207000881FD2F7089557FD9058440F551F59F007
:102080005F3F71F04795880F97FB991F61F09F3F65
:1020900079F087950895121613061406551FF2CF8E
:1020A0004695F1DF08C0161617061806991FF1CFDE
:0E20B00086957105610508940895F894FFCF98
:1020BE0028F91C58C94A0AF80848FFDFF700000043
:1020CE0000000000000001020203030303040404E5
:1020DE0004040404040505050505050505050505A7
:1020EE000505050505060606060606060606060687
:1020FE000606060606060606060606060606060672
:10210E000606060606070707070707070707070756
:10211E000707070707070707070707070707070741
:10212E000707070707070707070707070707070731
:10213E000707070707070707070707070707070721
:10214E000707070707080808080808080808080806
:10215E0008080808080808080808080808080808F1
:10216E0008080808080808080808080808080808E1
:10217E0008080808080808080808080808080808D1
:10218E0008080808080808080808080808080808C1
:10219E0008080808080808080808080808080808B1
:1021AE0008080808080808080808080808080808A1
:1021BE000808080808080808080808080808080891
:0C21CE0008080808082000D603000000E4
:00000001FF
