:100000001DC04CC036C035C034C033C032C031C052
:1000100030C035C02EC077C22CC02BC02AC029C02A
:1000200028C027C026C04DC153C15CC166C170C184
:100030007AC18AC194C1A6C1B6C1D7C111241FBE5D
:10004000CFE5D4E0DEBFCDBF10E0A0E6B0E0ECE14C
:10005000F6E002C005900D92A036B107D9F712E084
:10006000A0E6B0E001C01D92A73BB107E1F741D087
:10007000D3C2C6CF85E083BF81E089BF08951F92B8
:100080000F920FB60F9211240F900FBE0F901F907A
:1000900018958AE085BF80E48BBF08951F920F9268
:1000A0000FB60F9211240F900FBE0F901F9018954E
:1000B00021E030E002C0220F331F8A95E2F7322F91
:1000C00014BA84B3822B84BB25BB80E197E20197ED
:1000D000F1F714BA15BA40E050E002C04F5F5F4F2D
:1000E00083B3832321F083E04F3F5807B9F7CA0158
:1000F00008953F924F925F926F927F928F929F925C
:10010000AF92BF92CF92DF92EF92FF920F931F9325
:10011000CF93DF9389E190E0DDD1ABD0789468E0B4
:10012000362E58ECE52EF12CC7E7D0E044E0442E03
:10013000512C4C0E5D1E38E0632E712C6C0E7D1E12
:100140002CE0822E912C8C0E9D1E90E1A92EB12CBC
:10015000AC0EBD1E84E1C82ED12CCC0EDD1E31BAF2
:1001600012BA88EE93E0F7013197F1F70197D9F7CA
:1001700080E090E09DDF9C0130703093760020930A
:10018000750090937700198281E090E091DF9C01E7
:10019000307030937A002093790090937B00F201C5
:1001A000118282E090E084DF9C01307030937E0009
:1001B00020937D0090937F00F301118283E090E013
:1001C00077DF9C0130703093820020938100909300
:1001D0008300F401118284E090E06ADF9C013070BA
:1001E000309386002093850090938700F50111825B
:1001F00085E090E05DDF9C01307030938A002093B1
:10020000890090938B00F601118280E06AE047E359
:1002100052E025E730E00CE010E00ED1F7D0882363
:1002200009F49DCF32BA80E197E2F7013197F1F7F7
:100230000197D9F7FED093CFEF92FF920F931F93C0
:10024000E82E01E010E002C0000F111F8A95E2F7CE
:10025000F02E8FE012D014BA84B3F82AF4BA05BB9A
:1002600014BA15BA8E2D09D01F910F91FF90EF90FF
:1002700008953E9A83E886B9089597B1907F982BA8
:1002800097B9369A3699FECF369A3699FECF24B171
:1002900045B1942F80E030E0282B392BC901089517
:1002A000482F80916200882309F0AFC080916000E0
:1002B000E82FF0E0EB30F10508F0A7C0ED5EFF4F4E
:1002C0000994409361004F3F09F06AC081E057C034
:1002D00080916100840F809361004F3F09F060C0FE
:1002E00082E04DC080916100840F80936100409353
:1002F000B7001092B80083E042C080916100840F83
:10030000809361004093B5001092B60084E037C03E
:1003100080916100840F809361004093B10010923E
:10032000B20085E02CC080916100840F8093610051
:100330008091B1009091B200840F911D9093B20012
:100340008093B10086E01BC080916100840F809390
:1003500061004093B3001092B40087E010C0809118
:100360006100840F809361008091B3009091B4008C
:10037000840F911D9093B4008093B30088E0809324
:100380006000089580916100841751F489E08093A2
:100390006000109261001092640010926300089552
:1003A0001092600008952091630030916400809164
:1003B000B3009091B400281739079CF48091610034
:1003C000840F80936100F901EE0FFF1FE754FF4F88
:1003D000408311822F5F3F4F30936400209363006E
:1003E0000895109264001092630080916100841758
:1003F00041F4109260001092610081E080936200ED
:100400000895109260001092620008958091620039
:1004100008958091B70008958091B1009091B20045
:1004200008958091B3009091B400089589EB90E015
:1004300008951092620008958F929F92AF92BF929A
:10044000CF92DF92EF92FF920F931F93CF93DF93A0
:10045000F82EE62ED42EC52EB22EA32E48018FEFF5
:1004600040D08FEF3ED08F2D3CD08E2D3AD08D2DA9
:1004700038D08C2D36D0102F882D33D0892D31D007
:100480008EEFF80EFE0CFD0CFC0C1F0D812F890D5C
:1004900028D02B2D3A2DC901EC01FF2400E010E0FB
:1004A00007C088811ED08881F80E0F5F1F4F2296EB
:1004B00008151905B4F38F2D14D0DF91CF911F913A
:1004C0000F91FF90EF90DF90CF90BF90AF909F90F3
:1004D0008F90089590BD89B988E98AB986E880BD72
:1004E00008955D9BFECF8CB908955F9BFECF8CB1C4
:1004F0000895FC0104C05D9BFECF31968CB98081CC
:100500008823C9F708951F920F920FB60F921124F6
:100510002F933F934F935F936F937F938F939F930B
:10052000AF93BF93EF93FF935F9BFECF8CB1B8DE89
:10053000FF91EF91BF91AF919F918F917F916F91BB
:100540005F914F913F912F910F900FBE0F901F9091
:1005500018950F931F93DF93CF93CDB7DEB72797EF
:100560000FB6F894DEBF0FBECDBF8E010F5F1F4FD9
:10057000B8014AE050E00DD0C801BBDF27960FB6A6
:10058000F894DEBF0FBECDBFCF91DF911F910F91C9
:100590000895FB019F01E8944230BCF04532ACF471
:1005A0004A3029F497FB1EF4909581959F4F642F54
:1005B00077271ED0805D8A330CF0895D8193CB0153
:1005C0000097A9F716F45DE251931082C90100C0AB
:1005D000DC01FC01672F71917723E1F7329704C0AA
:1005E0007C916D9370836291AE17BF07C8F3089535
:1005F000AA1BBB1B51E107C0AA1FBB1FA617B70749
:1006000010F0A61BB70B881F991F5A95A9F7809564
:0C0610009095BC01CD010895F894FFCF37
:00000001FF
