:100000000C9446000C945D000C945D000C945D0013
:100010000C945D000C945D000C945D000C945D00EC
:100020000C945D000C945D000C945D000C945D00DC
:100030000C945D000C945D000C945D000C945D00CC
:100040000C945D000C945D000C945D000C945D00BC
:100050000C945D000C945D000C945D000C945D00AC
:100060000C945D000C945D000C945D000C945D009C
:100070000C945D000C945D000C945D000C945D008C
:100080000C945D000C945D000C945D0011241FBE67
:10009000CFEFD0E1DEBFCDBF11E0A0E0B1E0E6EDF3
:1000A000F1E000E00BBF02C007900D92A030B10755
:1000B000D9F70E946F000C94E9000C94000040E016
:1000C00020E030E0C9010197F1F7C9010197F1F78C
:1000D000C9010197F1F74F5F4233A1F7089582E814
:1000E0008FBD8BE18EBD83EC99E097BD86BD8CEB17
:1000F00090E09BBD8ABDB99AB89A14BA48EC50E01A
:1001000067EB70E083B388738831E9F45BBD4ABD67
:10011000C09820E030E00AC0FA013197F1F701976A
:10012000D9F72F5F3F4F2832310519F080E197E270
:10013000F3CF7BBD6ABDC09A80E49FE1FA0131979D
:10014000F1F70197D9F783B388738832E9F45BBD7F
:100150004ABDC09820E030E00AC0FA013197F1F7BB
:100160000197D9F72F5F3F4F2634310519F080E111
:1001700097E2F3CF7BBD6ABDC09A80E49FE1FA01AC
:100180003197F1F70197D9F783B388738033E9F496
:100190005BBD4ABDC09820E030E00AC0FA0131974B
:1001A000F1F70197D9F72F5F3F4F2330310519F051
:1001B00080E197E2F3CF7BBD6ABDC09A80E49FE106
:1001C000FA013197F1F70197D9F75BBD4ABDC098A5
:0601D00099CFF894FFCF67
:00000001FF
