:1000000012C02AC029C028C027C026C025C024C0CD
:1000100023C022C021C020C01FC01EC01DC01CC0E4
:100020001BC01AC019C011241FBECFEDCDBF10E0F8
:10003000A0E6B0E0EAE9F0E002C005900D92A0363B
:10004000B107D9F710E0A0E6B0E001C01D92A036DC
:10005000B107E1F702D01FC0D3CF8FEF81BB33E0F0
:100060002FEF31B918B8449B04C088B190E080727A
:100070009070009711F022BBF4CF12BAF2CF83E058
:1000800081B918B8449B06C028B130E020723070A6
:0A009000C90108950895F894FFCF08
:00000001FF
