:100000001CC098C0EBC034C033C032C031C030C057
:100010002FC09FC02DC02CC02BC02AC029C028C013
:1000200027C026C025C060C063C065C068C069C065
:100030006CC06FC072C074C078C011241FBECFE501
:10004000D4E0DEBFCDBF10E0A0E6B0E0EEEFF1E01F
:1000500002C005900D92A036B107D9F710E0A0E6D6
:10006000B0E001C01D92A236B107E1F718D0C5C0BB
:10007000C7CF97B1907F982B97B9369A3699FECF14
:10008000369A3699FECF85B1089520E040E050E0E1
:10009000CA010197F1F72F5F2431D1F708958BB78B
:1000A00080648BBF82E085BF8BB780688BBF88E0A0
:1000B00085BF80EC81BB8FE187BB109261001092FD
:1000C000600087B1806687B983E886B985E083BF21
:1000D00081E089BF7894FFCFE82FF0E0EA30F105A6
:1000E00040F5ED5EFF4F099480EC82BB8BE11BC0B5
:1000F00012BA8AE018C080E482BB87E114C012BA49
:1001000011C080E882BB8EE00EC080E882BB8DE12A
:100110000AC080EC82BB8CE106C012BA8BE003C03F
:1001200080EC82BB8FE188BB089580E882BB8FE1C1
:1001300088BB08951F920F920FB60F9211248F93D0
:1001400085E0809360008F910F900FBE0F901F90FD
:1001500018951F920F920FB60F9211242F933F9371
:100160004F935F936F937F938F939F93AF93BF93BF
:10017000EF93FF93809161008F5F80936100809186
:100180006100843029F4809160008F5F809360006B
:1001900080916100853011F41092610080916000BF
:1001A0009BDF809160008A3011F410926000FF9113
:1001B000EF91BF91AF919F918F917F916F915F91DF
:1001C0004F913F912F910F900FBE0F901F90189558
:1001D00087B1806687B983E886B908951F920F9228
:1001E0000FB60F9211248F9383E0809360008F915C
:0E01F0000F900FBE0F901F901895F894FFCF40
:00000001FF
